S01400004672656552544F53323536302E7372656379
S1130000F7C1000025C2000023C2000021C2000085
S11300101FC200001DC200001BC2000019C2000064
S113002017C2000015C2000013C2000011C2000074
S11300300FC200000C9431130BC2000009C200006F
S113004007C2000005C2000003C2000001C2000094
S1130050FFC10000FDC10000FBC100000C947D1F26
S1130060F7C100000C94B91D0C94F81DF1C10000F7
S1130070EFC10000EDC10000EBC10000E9C10000C8
S1130080E7C10000E5C10000E3C10000E1C10000D8
S11300900C94641E0C94A31EDBC100000C94AB17DB
S11300A0D7C10000D5C10000D3C10000D1C10000F8
S11300B0CFC100000C948F11CBC10000C9C1000056
S11300C0C7C10000C5C10000C3C10000C1C1000018
S11300D0BFC10000BDC10000BBC10000B9C1000028
S11300E0B7C10000B118B418B418B418B418B418CF
S11300F0B418B418CB17B418B418B418B418B41886
S1130100B418B418CB17B418B418B418B418B41875
S1130110B418B418D317B418B418B418B418B4185D
S1130120B418B418F817B418B418B418B418B41828
S1130130B418B418D317B418B418B418B418B4183D
S1130140B418B418FD17B418B418B418B418B41803
S1130150B418B4180218B418B418B418B418B418ED
S1130160B418B4181318B418B418B418B418B418CC
S1130170B418B4183C18B418B418B418B418B41893
S1130180B418B4180718B418B418B418B418B418B8
S1130190B418B4182118B418B418B418B418B4188E
S11301A0B418B4183E18B418B418B418B418B41861
S11301B0B418B4183E18B418B418B418B418B41851
S11301C0B418B4183E18B418B418B418B418B41841
S11301D0B418B4183E18B418B418B418B418B41831
S11301E0B418B4184718B418B418B418B418B41818
S11301F0B418B4187818B418B418B418B418B418D7
S1130200B418B4184718B418B418B418B418B418F7
S1130210B418B4187818B418B418B418B418B418B6
S1130220B418B4185F18B418B418B418B418B418BF
S1130230B418B4187C18B418B418B418B418B41892
S1130240B418B4187C18B418B418B418B418B41882
S1130250B418B4189118B418B418B418B418B4185D
S1130260B418B418AB18B418B418B418B418B41833
S1130270B418B418AB18084AD73B3BCE016E84BC03
S1130280BFFDC12F3D6C74319ABD56833DDA3D00EC
S1130290C77F11BED9E4BB4C3E916BAAAABE000035
S11302A000803F00AB20AF2099209F20A520F420A0
S11302B0B320B920BF20C520CB20D120D720DD20FA
S11302C0F420E320E920EF2000000A0B02090C0DC2
S11302D00E080703040100000000000000000000F5
S11302E0000000000000000000000000000000000A
S11302F000000000121110000000000000000000C7
S113030000000000000000000000000000000102E6
S11303101020200808102040102040800201020113
S113032008040201010204081020408080402010CB
S11303300804020180040201804020100804020124
S1130340080402010102040810204080010204088C
S11303501020408005050505070508080808020265
S113036002020A0A0808040404040101010101014B
S113037001010303030303030303040707070C0C2E
S11303800C0C0C0C0C0C02020202060606060606F5
S113039006060B0B0B0B0B0B0B0B000020002300B2
S11303A0260029002C002F00320000010000030168
S11303B00601090100002200250028002B002E0060
S11303C03100340002010000050108010B010000A6
S11303D02100240027002A002D00300033000101F1
S11303E00000040107010A0131039919211ECC1EE2
S11303F011241FBECFEFD1E2DEBFCDBF00E00CBFA2
S113040013E0A0E0B2E0EEEBFAE400E00BBF02C0C0
S113041007900D92A831B107D9F720E1A8E1B3E024
S113042001C01D92A931B207E1F713E0C0EFD3E098
S113043000E006C022970109FE010BBF0E949D2225
S1130440C83ED10780E00807A9F7A7D00C945D2522
S1130450D7CD26E040E052EC61E070E086ED9EE00E
S11304600E94551D84E89EE00E94611942E063E009
S113047082EA97E0CFD782EA97E08BD78EEA97E0BB
S11304800E945E0B10921D0710921C0742E064E06C
S113049085EB97E00E94B31085EB97E00E940D0F67
S11304A061E089E20E94F52060E08AE20E94F52082
S11304B061E085E20E94F52060E084E20E94F5207C
S11304C061E088E20E94F52060E087E20E94F52066
S11304D061E08BE20E94F52060E08CE20E94F5204E
S11304E061E08AE00E94F52060E08BE00E94F52044
S11304F061E084E30E94F52086E0E7E1F2E0A7EC06
S1130500B7E001900D928A95E1F786E0EDE1F2E023
S1130510A1ECB7E001900D928A95E1F70895CF938D
S1130520DF93C82FD62F60E00E94332182E090E051
S11305300E94222061E08C2F0E9433218AE090E007
S11305400E94222060E08C2F0E94332160E08D2FD6
S11305500E94F52020EA36E841E050E061E08D2F6A
S11305600E948C210E94011B609386077093870769
S113057080938807909389072DEC3CEC48E652E47D
S11305800E94681A6093820770938307809384079C
S113059090938507DF91CF910895AF92BF92CF9248
S11305A0DF92EF92FF920F93CF93DF93CDB7DEB735
S11305B028970FB6F894DEBF0FBECDBF0E942D2042
S11305C048DFA12CB12CC12CD12CCE0107967C0183
S11305D005E020E030E040E051E06FE272E08DE8B9
S11305E093E00E948913CE0105967C0107E020E088
S11305F030E040E850E06CE372E086E894E00E946A
S11306008913CE0103967C0106E020E030E040E847
S113061050E06DE472E08BE693E00E948913CE0112
S113062001967C0105E020E030E040E850E069E517
S113063072E089E795E00E9489130E94911480E09A
S113064090E028960FB6F894DEBF0FBECDBFDF91C1
S1130650CF910F91FF90EF90DF90CF90BF90AF902C
S11306600895EF920F9385EB97E00E946E0B8EEA4C
S113067097E0F2D782EA97E065D60F2EF3E0EF2EEB
S1130680F02D04E020E032E043E052E067E072E065
S11306908EE197E024D30F91EF900895BC0186ED8D
S11306A09EE00E946D1F86ED9EE00C94EE1C089562
S11306B0CF93DF93CDB7DEB7FE013696619171918A
S11306C0AF018CE193E00E94A1228CE193E0E6DF8C
S11306D0DF91CF910895C2E9D2E00F2EFAE8EF2E10
S11306E0F7E0FF2EF02D8EE197E011D6882371F00C
S11306F0082F10E01F928F93DF93CF93D9DFF70178
S1130700118300830F900F900F900F90809113022C
S1130710909114020E94FF15E6CFC7EBD7E009EBD6
S113072017E00F2EFEE82F2EF7E03F2EF02D85EB7D
S113073097E00E947E1085EB97E00E948F0E6091F7
S1130740B5077091B607882777FD8095982F0E948A
S1130750031B20E030E040E85DE30E94E31B2B0133
S11307603C0168817981882777FD8095982F0E94C4
S1130770031B20E030E040E85DE30E94E31B4B01F3
S11307805C01D8018D919C91BC01882777FD8095EF
S1130790982F0E94031B20E030E040E85DE30E94B4
S11307A0E31B6B017C01A3019201C301B2010E940E
S11307B0E31B2B013C01A5019401C501B4010E9476
S11307C0E31B9B01AC01C301B2010E949E1920E00E
S11307D030E040E85EE30E94E31B4B015C01A701AB
S11307E09601C701B6010E94E31B9B01AC01C50140
S11307F0B4010E949E190E944A1C6B017C010E9454
S1130800C71F4B015C0120E030E04AE754E4C70114
S1130810B6010E94D81B18160CF05EC0C501B401C5
S11308200E94011B4B015C012091180330911903B4
S113083040911A0350911B030E949D1920E030E05F
S11308404AEF53E40E94D81B88230CF445C020E0EF
S113085030E044E052E460919E0770919F078091DC
S1130860A0079091A1070E949E1960939E07709320
S11308709F078093A0079093A10780919C07909174
S11308809D07019690939D0780939C07C701B6012D
S11308900E94D01A7F936F93A4EAB2E0BF93AF9300
S11308A007DF80919D078F9380919C078F93AEEA19
S11308B0B2E0BF93AF93FCDE8092180390921903C9
S11308C0A0921A03B0921B038DB79EB708960FB679
S11308D0F8949EBF0FBE8DBF60919E0770919F07D5
S11308E08091A0079091A1070E94D01AD1016D9325
S11308F07C9364E670E080E090E00E94F91F8091B0
S11309001302909114020E94FF1511CF0F2EF0E9EB
S1130910CF2EF7E0DF2EF02D0F2EF2E9EF2EF7E0C9
S1130920FF2EF02D04E917E0C6E9D7E00F2EF8E911
S1130930AF2EF7E0BF2EF02D0F2EF5E98F2EF2E04B
S11309409F2EF02D6AE270E089E290E0E8DD0E94DB
S1130950D01AF6017183608364E270E085E290E06E
S1130960DEDD0E94D01AF7017183608367E270E0D4
S113097088E290E0D4DD0E94D01AF801718360838C
S11309806CE270E08BE290E0CADD0E94D01A7983B9
S113099068836BE070E08AE090E0C1DD0E94D01AC9
S11309A0F501608371837F936F9389818F9388812D
S11309B08F93F80181818F9380818F93F7018181D7
S11309C08F9380818F93F60181818F9380818F93A0
S11309D09F928F926DDE80911302909114020E9477
S11309E0FF158DB79EB70C960FB6F8949EBF0FBE39
S11309F08DBFA8CFCF93DF93CDB7DEB7D4500FB65A
S1130A00F894DEBF0FBECDBFFE01EA5FFB4F6191DC
S1130A107191AF018CE193E00E94A122E091730FE8
S1130A20F091740F0190F081E02D64E083E79FE082
S1130A301995E091730FF091740F0190F081E02DFE
S1130A4060E083E79FE01995E091730FF091740FD4
S1130A500280F381E02D40E054E0BE016F5F7F4FE0
S1130A6083E79FE0199583E79FE00E94B91CC09734
S1130A70A9F687EB92E09F938F931ADE0F900F9065
S1130A80DC5F0FB6F894DEBF0FBECDBFDF91CF9110
S1130A90089583E79FE00E94A01C892BD1F383E78C
S1130AA09FE00E94B91C0297A1F789EB92E0F6DD62
S1130AB0E091730FF091740F0190F081E02D60E0EC
S1130AC083E79FE019958BEB92E0E8DD8DEB92E0F4
S1130AD0E5DD83E79FE00E94B91C892BD1F78FEBFA
S1130AE092E0DCDD81E090E090931D0780931C0789
S1130AF008950F2EF8E9AF2EF7E0BF2EF02D0F2E3C
S1130B00F6E9CF2EF7E0DF2EF02D0F2EF4E9EF2ECD
S1130B10F7E0FF2EF02D02E917E0C0E9D7E00F2E31
S1130B20FEE88F2EF7E09F2EF02D0F2EFCE86F2E9F
S1130B30F7E07F2EF02D0F2EFAE84F2EF7E05F2E10
S1130B40F02D0F2EF1EC2F2EF2E03F2EF02D61EB65
S1130B5072E086ED9EE00E946D1F61EB72E086ED0F
S1130B609EE00E946D1F80911C0790911D07892BA8
S1130B7011F48FDF32C0F50181818F9380818F93CF
S1130B80F60181818F9380818F93F70181818F9307
S1130B9080818F93F80181818F9380818F938981E4
S1130BA08F9388818F93F40181818F9380818F93B8
S1130BB0F30181818F9380818F93F20181818F93DF
S1130BC080818F933F922F9215DF8DB79EB7429607
S1130BD00FB6F8949EBF0FBE8DBFF50181818F9330
S1130BE080818F93F60181818F9380818F93F701A8
S1130BF081818F9380818F93F80181818F9380818C
S1130C008F9389818F9388818F93F40181818F934E
S1130C1080818F93F30181818F9380818F93F2017F
S1130C2081818F9380818F933F922F9241DD8091B8
S1130C301302909114020E94FF158DB79EB742963D
S1130C400FB6F8949EBF0FBE8DBF81CFCF93DF93B5
S1130C50EC010E94BA148091DB079091DC07892B88
S1130C6031F480EE97E09093DC078093DB074091AA
S1130C70DD075091DE079E01240F351F2B3D85E0D3
S1130C80380770F44217530770F4C091DB07D09112
S1130C90DC07C40FD51F3093DE072093DD0705C0A2
S1130CA0C0E0D0E002C0C0E0D0E00E947E15CE01DA
S1130CB0DF91CF9108950895FC011082138214826C
S1130CC00895862F642F0C94F5200895862F642FA1
S1130CD00C9433210895862F0C94632108954F9228
S1130CE05F926F927F928F929F92AF92BF92CF92B8
S1130CF0DF92EF920F93CF93DF93EC014B013A0114
S1130D0059010296D9DF8DEE92E0998388832E01F2
S1130D108BE1480E511C620182E3C80ED11CC20152
S1130D20CBDF85E0480E511C4C145D04C1F7FE0175
S1130D30E95AFF4F718260823296B182A082329664
S1130D4000833196E08237979182808238968AE0D8
S1130D5090E091838083329684EF91E09183808345
S1130D60339611821082719710821182128213823B
S1130D70CF59DF4F1882DF91CF910F91EF90DF9021
S1130D80CF90BF90AF909F908F907F906F905F9027
S1130D904F9008952F923F924F925F926F927F925D
S1130DA08F929F92AF92BF92CF92DF92EF92FF9277
S1130DB00F931F93CF93DF93EC01FC01E55AFF4F90
S1130DC080818823D1F0D12C7E0187E5E80EF11CC7
S1130DD08F0188819981F701A081B181AD0DB11D89
S1130DE0FC012081318142E06C91CE01F901199519
S1130DF0D394D8018C91D81660F3FE01E45AFF4FC6
S1130E008081882309F498C0412C3E01B9E56B0E1A
S1130E10711C8E01055A1F4F7E01E7E5EE0EF11C91
S1130E201E01FCE52F0E311C842C912C88819981A4
S1130E30F301A081B181A80DB91DFC01208131818C
S1130E4041E06C91CE01F901199588819981F301F2
S1130E50A081B181A80DB91DFC012281338140E03C
S1130E606C91CE01F9011995D8018C91882309F46C
S1130E703FC081E090E0A0E0B0E0042C04C0880F03
S1130E80991FAA1FBB1F0A94D2F75C016C01C0947E
S1130E90D094512C88819981F701A081B181A50D4D
S1130EA0B11DFC01248135816C91CE01F9011995A4
S1130EB0892B69F4E52DF0E0EE0FFF1FEC0FFD1F09
S1130EC0878190858A299B29908787830CC0E52D8B
S1130ED0F0E0EE0FFF1FEC0FFD1F878190858C2142
S1130EE09D21908787835394D8018C91581690F252
S1130EF088819981F301A081B181A80DB91DFC01FC
S1130F002281338141E06C91CE01F9011995E88188
S1130F10F981D3018D919C91DC01A80DB91D01903B
S1130F20F081E02D40E06C91CE0119954394F101DC
S1130F308081481608F478CFDF91CF911F910F91EB
S1130F40FF90EF90DF90CF90BF90AF909F908F90E5
S1130F507F906F905F904F903F902F900895FC0189
S1130F60248D358D2617370789F0B19621E030E0BE
S1130F70822F932F408151814617570761F02F5FCD
S1130F803F4F35962A30310599F703C080E090E051
S1130F9008958FEF9FEF0895262F30E0F901EE0FAB
S1130FA0FF1FEE0FFF1FE20FF31FE80FF91F468F1D
S1130FB041E0478FFC01EF59FF4F4081442369F022
S1130FC031960190F081E02D3097E1F061111AC063
S1130FD0DC015B968C9119950895FC01EE59FF4F45
S1130FE00190F081E02D309769F0A901440F551F5D
S1130FF0440F551F240F351FDC01A20FB31F5B964E
S11310008C9119950895EF92FF920F931F93CF93AC
S1131010DF93EC01F62EE42E862F90E0FC01EE0F18
S1131020FF1FEE0FFF1FE80FF91FEC0FFD1F178EB8
S1131030868D8130A9F028F08230B9F18330D9F15E
S11310403DC0442309F43AC041E0CE01A5DF0E942B
S1131050C71FC35BDF4F688379838A839B832EC05A
S11310600E94C71FFE01E35BFF4F008111812281B3
S11310703381DC01CB01801B910BA20BB30B729665
S11310800081118120E030E0081719072A073B0787
S113109028F442E06F2DCE017FDF10C0E1100EC0B6
S11310A043E06F2DCE0178DF09C0411107C043E052
S11310B0CE0172DF03C040E0CE016EDFDF91CF913D
S11310C01F910F91FF90EF9008952F923F924F92AE
S11310D05F926F927F928F929F92AF92BF92CF92C4
S11310E0DF92EF92FF920F931F93CF93DF93CDB7CD
S11310F0DEB727970FB6F894DEBF0FBECDBF8C01C5
S1131100FC017F962AE08FEF9FEFDF0111973C915E
S1131110311106C013971C9211968D939C931082E3
S1131120215035962111F1CFF801E55AFF4F808106
S1131130882309F492C0212C68012CE5C20ED11C2D
S1131140480135E5830E911C1D82C80180969A835F
S11311508983FC83EB8365C0F50180819181052C33
S113116002C0969587950A94E2F7F82FF1703F2E06
S11311702E9DC0012F9D900D11249C01250D311D24
S11311803F832E83D401ED91FC91E20FF31F408045
S1131190B901C801E4DE3C01992324F0432D682FF2
S11311A0C80131DF6720609481F5332071F1F801C3
S11311B0838D882371F0E981FA8181E090E0AE812A
S11311C0BF81682F9C01408141111AC0BF83AE8347
S11311D003C020E030E06D81F901EE0FFF1FEE0F38
S11311E0FF1F2E0F3F1FF801E20FF31F438E2E81C6
S11311F03F81358F248F168E41E0C80104DF05C07E
S1131200019635968A309105E1F65394D6012C91D6
S1131210521608F4A1CF2394EB81FC818081281617
S1131220E0F4D6012C912223B1F3512CE22CF12CC1
S11312305701AA0CBB1CA00EB11EB7E0AB0EB11C2B
S11312408BCFF801E20FF31F978D9111842F2B5F41
S11312503F4F22333105A9F705C020E030E080E09C
S113126041E0EFCF27960FB6F894DEBF0FBECDBF97
S1131270DF91CF911F910F91FF90EF90DF90CF906E
S1131280BF90AF909F908F907F906F905F904F90A2
S11312903F902F900895CF92DF92EF92FF920F9399
S11312A01F93CF93DF93EC010E94C71FFE01EF5AF7
S11312B0FF4F00811181228133816B017C01C01AAF
S11312C0D10AE20AF30A3C9660817181CB01A0E065
S11312D0B0E08C159D05AE05BF0570F4CE015ADD56
S11312E0CE01F3DE182F0E94C71FCF5ADF4F688349
S11312F079838A839B8301C010E0812FDF91CF9192
S11313001F910F91FF90EF90DF90CF900895CF93AE
S1131310DF93EC01FC01EF59FF4F81E08083CE01A4
S1131320BADF882341F08F8D882329F08E8D813098
S113133011F48B8D04C0CF59DF4F188280E0DF9108
S1131340CF910895FC0183E087831286118613866A
S113135008950F931F93CF93DF93EC01062F142F5F
S1131360688584E89EE00E947A19602F84E89EE0F4
S11313700E942119612F84E89EE00E94211984E8CB
S11313809EE00E9496198E83DF91CF911F910F9159
S11313900895CF93DF93EC018F81823021F440E0F4
S11313A069E3CE01D6DF40E063E2CE01D2DF4FE64F
S11313B060E2CE01CEDFDF91CF910895CF93DF932A
S11313C0C62FD42F84E89EE00E947A196D2F84E8FA
S11313D09EE00E94211984E89EE00E9496198111E2
S11313E011C041E06C2F84E89EE00E94771984E8E4
S11313F09EE00E94C718892B41F084E89EE00E9479
S1131400CF1805C08FEF9FEF02C08FEF9FEFDF91E2
S1131410CF9108950F931F93CF93DF93EC01162F71
S1131420042F633009F456C04230C9F556C0133056
S113143009F058C0873D910509F458C001E011E056
S11314402CC0013091F04FE06AE6CE01B7DF8F3F48
S11314502FEF920751F0133009F046C0873D9105F4
S113146009F047C000E012E018C0133011F0111168
S113147014C0002349F04FE069E6CE019FDF833DAD
S11314809105D1F1013039F04FE068E6CE0196DFE5
S1131490833D910599F11330B9F00230B9F01F83FF
S11314A0112351F01330A0F4013011F48BE601C084
S11314B08AE6888781E041C0013011F489E601C0E1
S11314C088E6888781E039C080E037C080E035C095
S11314D081E033C0442341F11EC08FEF860F833077
S11314E030F60FC001E0C3CF00E0C1CF01E012E04D
S11314F0D4CF00E011E0D1CF01E001C000E01F82B1
S1131500DBCF4FE06BE6CE0159DF8F3F2FEF920721
S113151009F08DCF98CF4FE06BE650DF8F3F2FEF70
S1131520920709F087CF8DCF4FE06AE647DF8F3F00
S11315302FEF920709F092CF98CFDF91CF911F91AF
S11315400F910895FC010396928381832FEF3FEF5F
S113155034832383968385839087878310820895B9
S1131560FC01118610860895CF93DF939C01FB0143
S1131570DC011196CD91DC911297D383C2838C81C7
S11315809D81958384838C819D81DC0113967C935A
S11315906E9312977D836C8331872087F901808154
S11315A08F5F8083DF91CF910895CF93DF93EB0119
S11315B0488159814F3F2FEF520721F4FC01A78145
S11315C0B0850DC0DC0113961296ED91FC91139732
S11315D0208131814217530710F0DF01F5CF1296B5
S11315E0ED91FC911397FB83EA83D583C483BD8378
S11315F0AC831396DC93CE93129799878887FC016A
S113160020812F5F2083DF91CF910895CF93DF93C3
S1131610FC01A085B185C281D381848195819D839C
S11316208C83C481D581828193819B838A83119623
S1131630CD91DC911297CE17DF0731F48C819D8117
S113164012969C938E931197118610868C918150DB
S11316508C93DF91CF91089522E0FC0120832DE546
S1131660218308951F93CF93DF93EB01142FDD2380
S11316703CF4FC01E61BF70BC281DD27C7FDD095C6
S1131680FC01618184E89EE00E947A19E091840E55
S1131690F091850E0190F081E02D6C2F84E89EE09E
S11316A01995612F84E89EE00E94211984E89EE048
S11316B00E949619DF91CF911F910895FC0120811A
S11316C0213029F440EB60E270E0CCCF0895211181
S11316D004C040EE60E270E0C5CF0895CF93DF937D
S11316E0EC0186E0E3E2F2E0DE01529601900D9215
S11316F08A95E1F786E0E9E2F2E0DE011C960190CA
S11317000D928A95E1F784E0898F1CA21BA21DA289
S1131710DF91CF9108954F925F926F927F928F9253
S11317209F92AF92BF92CF92DF92EF92FF920F936C
S11317301F93CF93DF9300D01F92CDB7DEB78C01F8
S1131740DC014D905D906D907C90139714968D9074
S11317509D90AD90BC90179718968D919D910D908A
S1131760BC91A02D89839A83AB83BC83A30192018E
S1131770C301B2010E94E31B6B017C01A50194012A
S1131780C501B4010E94E31B9B01AC01C701B60172
S11317900E949E196B017C0129813A814B815C81F5
S11317A0CA01B9010E94E31B9B01AC01C701B60148
S11317B00E949E190E944A1C6B017C019B01AC0192
S11317C0C301B2010E94681AF801608371838283A5
S11317D09383A7019601C501B4010E94681AD80138
S11317E014966D937D938D939C931797A7019601FF
S11317F069817A818B819C810E94681AF8016087D3
S11318007187828793870F900F900F900F90DF91CD
S1131810CF911F910F91FF90EF90DF90CF90BF90E9
S1131820AF909F908F907F906F905F904F900895AE
S11318304F925F926F927F928F929F92AF92BF92DC
S1131840CF92DF92EF92FF920F931F93CF93DF9388
S1131850CDB7DEB7AA970FB6F894DEBF0FBECDBFE3
S11318608C01298F3A8F4B8F5C8F6D8F7E8FDC01BB
S11318701696CD90DC901797EE24D7FCE094FE2CBE
S113188052964D915C915397662757FD6095762F3C
S11318901C968D919C911D97AA2797FDA095BA2F10
S11318A0480F591F6A1F7B1FDB01CA0177231CF4F1
S11318B00196A11DB11DB595A79597958795A7018B
S11318C09601281B390B4A0B5B0B2F8F38A349A3B6
S11318D05AA3D8011896CD90DC901997EE24D7FC22
S11318E0E094FE2C54964D915C915597662757FDD4
S11318F06095762F1E968D919C911F97AA2797FD30
S1131900A095BA2F480F591F6A1F7B1FDB01CA011C
S113191077231CF40196A11DB11DB595A795979544
S11319208795A7019601281B390B4A0B5B0B2BA348
S11319303CA34DA35EA3D8011A964D905C901B97CF
S1131940662457FC6094762C56964D915C9157977B
S1131950662757FD6095762F50968D919C915197EF
S1131960AA2797FDA095BA2F480F591F6A1F7B1FFE
S1131970DB01CA0177231CF40196A11DB11DB595A5
S1131980A79597958795481A590A6A0A7B0AF80118
S113199084809580AA2497FCA094BA2C8281938198
S11319A09C01442737FD4095542F2FA338A749A7FE
S11319B05AA72BA13CA14DA15EA1C501B4010E946F
S11319C04D226B017C01A30192016FA178A589A529
S11319D09AA50E944D22A7019601261B370B480B9E
S11319E0590BCA01B9010E94031B6D877E878F873B
S11319F0988BD801CD90DC90EE24D7FCE094FE2C9B
S1131A00A3019201C701B6010E944D222B013C01A2
S1131A102F8D38A149A15AA1C501B4010E944D22BC
S1131A20A3019201261B370B480B590BCA01B901BC
S1131A300E94031B698B7A8B8B8B9C8B2F8D38A117
S1131A4049A15AA16FA178A589A59AA50E944D2202
S1131A504B015C012BA13CA14DA15EA1C701B601C4
S1131A600E944D22A5019401261B370B480B590BEC
S1131A70CA01B9010E94031B6D8B7E8B8F8B988FDB
S1131A80CE010D9648DED80112966D917C91139784
S1131A90882777FD8095982F0E94031B6B017C019A
S1131AA02D893E894F89588D2F8F38A349A35AA376
S1131AB0D80114966D917C911597882777FD8095B0
S1131AC0982F0E94031B2B013C0129893A894B89D9
S1131AD05C892BA33CA34DA35EA32F8D38A149A100
S1131AE05AA1C701B6010E94E31B4B015C012BA163
S1131AF03CA14DA15EA1C301B2010E94E31B9B0165
S1131B00AC01C501B4010E949D1969837A838B835A
S1131B109C838D859E85AF85B8898FA398A7A9A737
S1131B20BAA7D8016D917C91882777FD8095982F6D
S1131B300E94031B4B015C012FA138A549A55AA59E
S1131B40C301B2010E94E31B2B013C01A5019401D6
S1131B506F8D78A189A19AA10E94E31B9B01AC011E
S1131B60C301B2010E949D196D837E838F83988780
S1131B70A50194016BA17CA18DA19EA10E94E31BF0
S1131B804B015C012FA138A549A55AA5C701B6018F
S1131B900E94E31B9B01AC01C501B4010E949D1985
S1131BA069877A878B879C87CE010196B4DD698D1E
S1131BB07A8D882777FD8095982F0E94031B2B012F
S1131BC03C016B8D7C8D882777FD8095982F0E9432
S1131BD0031B4B015C016D8D7E8D882777FD8095FD
S1131BE0982F0E94031B6B017C0129813A814B8150
S1131BF05C81C301B2010E94E31B6F8F78A389A3A8
S1131C009AA32D813E814F815885C501B4010E945C
S1131C10E31B9B01AC016F8D78A189A19AA10E945D
S1131C209E196F8F78A389A39AA329853A854B853A
S1131C305C85C701B6010E94E31B9B01AC016F8D5B
S1131C4078A189A19AA10E949E196F8F78A389A374
S1131C509AA32D853E854F855889C301B2010E9400
S1131C60E31B2B013C0129893A894B895C89C50115
S1131C70B4010E94E31B9B01AC01C301B2010E94A9
S1131C809E194B015C012D893E894F89588DC701EE
S1131C90B6010E94E31B9B01AC01C501B4010E9483
S1131CA09E192F8D38A149A15AA10E94111A20E032
S1131CB030E044E353E40E94E31B2BED3FE049E4AE
S1131CC050E40E94681A6B017C0120E030E0A90115
S1131CD00E94641A882354F420E030E044EB53E477
S1131CE0C701B6010E949E196B017C01C701B601B0
S1131CF0AA960FB6F894DEBF0FBECDBFDF91CF9189
S1131D001F910F91FF90EF90DF90CF90BF90AF9015
S1131D109F908F907F906F905F904F900895CF9396
S1131D20DF93CDB7DEB72C970FB6F894DEBF0FBEA6
S1131D30CDBFFC01218D233079F431E0232F3F8383
S1131D4018861A8619861C861B8630E040E05A8560
S1131D5060E07C856DDD0EC01A8219822FEF422F60
S1131D602B832C831E821D8220E03A815FEF60E08A
S1131D707E815EDD2C960FB6F894DEBF0FBECDBF1C
S1131D80DF91CF9108950F931F93CF93DF93EC01CD
S1131D90062F142F6A8D84E89EE00E947A19602F22
S1131DA084E89EE00E942119612F84E89EE00E944D
S1131DB0211984E89EE00E949619888FDF91CF91C3
S1131DC01F910F9108950F931F93CF93DF93EC010D
S1131DD0062F142F6B8D84E89EE00E947A19602FE1
S1131DE084E89EE00E942119612F84E89EE00E940D
S1131DF0211984E89EE00E949619888FDF91CF9183
S1131E001F910F910895FC01218D233011F0603250
S1131E1010F4D9CF0895B7CF0895CF93DF93EC0191
S1131E20898D8330A9F440E061E2CE01ECDF47E51F
S1131E3060E2CE01E8DF44E664E2CE01E4DF40E2A2
S1131E4065E2CE01E0DF40E066E2CE01DCDF1FC0E8
S1131E50823049F448E063E2CE0195DF47E460E272
S1131E60CE0191DF08C040E063E2CE018CDF47E29F
S1131E7060E2CE0188DF4CE060E0CE01A4DF40E206
S1131E8061E0CE01A0DF40E062E0CE019CDFDF91A3
S1131E90CF9108959F92AF92BF92CF92DF92EF922B
S1131EA0FF920F931F93CF93DF93EC016A8D84E825
S1131EB09EE00E947A19E091840EF091850E0190C3
S1131EC0F081E02D68EA84E89EE0199584E89EE0BC
S1131ED00E949619888F46E06A8D84E89EE00E94ED
S1131EE077190E94C71F8B0110C08BA19CA1892B5D
S1131EF061F00E94C71F601B710B8BA19CA1861708
S1131F00970718F481E08DA332C084E89EE00E9414
S1131F10C718069754F384E89EE00E94CF18A82EB1
S1131F2084E89EE00E94CF18982E84E89EE00E94E8
S1131F30CF18082F84E89EE00E94CF18B82E84E8BA
S1131F409EE00E94CF18182F84E89EE00E94CF18CC
S1131F50D92CC12CCA28D982C882FB2CE12CE02AB6
S1131F60FB82EA82982F8827812B9D838C83DF91C3
S1131F70CF911F910F91FF90EF90DF90CF90BF9082
S1131F80AF909F900895CF92DF92EF92FF920F93BC
S1131F901F93CF93DF93EC016B8D84E89EE00E9446
S1131FA07A19898D833031F46E8D772767FD7095AA
S1131FB0606804C06D8D772767FD7095E091840E8D
S1131FC0F091850E0190F081E02D84E89EE0199552
S1131FD084E89EE00E949619888F46E06B8D84E821
S1131FE09EE00E9477190E94C71F8B0110C08BA12D
S1131FF09CA1892B61F00E94C71F601B710B8BA1F0
S11320009CA18617970718F481E08DA36EC084E81D
S11320109EE00E94C718069754F3898D8330F9F423
S113202084E89EE00E94CF18C82E84E89EE00E94B7
S1132030CF18D82E84E89EE00E94CF18E82E84E8BA
S11320409EE00E94CF18F82E84E89EE00E94CF18EC
S1132050082F84E89EE00E94CF18182F36C084E829
S11320609EE00E94CF18D82E84E89EE00E94CF18EC
S1132070C82E898D811115C084E89EE00E94CF1876
S1132080F82E84E89EE00E94CF18E82E84E89EE0B3
S11320900E94CF18182F84E89EE00E94CF18082FC2
S11320A014C084E89EE00E94CF18182F84E89EE0B4
S11320B00E94CF18082F84E89EE00E94CF18F82EC3
S11320C084E89EE00E94CF18E82E6C2D70E07D29F4
S11320D07F836E834E2D50E05F2959874887202FD8
S11320E030E0C901912B9B878A87DF91CF911F91A3
S11320F00F91FF90EF90DF90CF900895CF93DF93EF
S1132100EC01C8DECE013FDFDF91CF910895CF937C
S1132110DF93C62FD42F84E89EE00E947A196D2F96
S113212084E89EE00E94211984E89EE00E949619AA
S1132130811111C041E06C2F84E89EE00E94771960
S113214084E89EE00E94C718892B41F084E89EE051
S11321500E94CF1805C08FEF9FEF02C08FEF9FEF53
S1132160DF91CF9108950F931F93CF93DF93EC01E9
S1132170162F042F643009F4ADC0423009F047C073
S1132180ADC04FE06DE1CE01C2DF8934910509F4A1
S1132190ABC0013041F04FE06EE1CE01B8DF8934CD
S11321A0910509F4A3C0143011F0133068F500232D
S11321B0A9F040E269E1CE01AADF019669F014308A
S11321C009F099C04FE06EE1CE01A1DFCC9709F090
S11321D094C001E012E01BC0013099F040E268E1D4
S11321E0CE0195DF019669F0143009F089C04FE003
S11321F06EE1CE018CDF11E0CC9709F010E000E035
S113220006C0143009F460C0023009F45FC0198FAD
S1132210113071F108F442C01230C1F0133009F0EA
S113222057C0013011F48DE101C08EE18B8F8A8F8C
S113223088E08E8F89E08D8F8AE088A38BE08F8F72
S11322408CE08AA38DE089A381E064C089E18A8F50
S11322508EE18B8F83E08D8F84E08E8F87E08F8F6C
S113226088E088A385E089A386E08AA381E052C040
S1132270013011F489E101C088E18A8F8EE18B8FEE
S113228083E08D8F84E08E8F87E08F8F88E088A332
S113229085E089A386E08AA381E03CC0013011F483
S11322A089E101C088E18A8F8EE18B8F83E08D8F75
S11322B084E08E8F85E08F8F86E088A387E089A3F2
S11322C088E08AA381E026C080E024C080E022C0A8
S11322D081E020C0442309F45ECF53CF8DEF860FF5
S11322E0823008F062CF0EC001E003C000E001C0FC
S11322F001E013E089CF01E08ACF01E010E087CF4D
S113230000E085CF4FE06DE1CE0101DF8934910516
S113231079F341CFDF91CF911F910F9108951F92CF
S11323200F920FB60F9211240BB60F922F933F9377
S11323304F935F936F937F938F939F93AF93BF93C9
S1132340EF93FF93E091BB0DF091BC0D309709F032
S11323501995FF91EF91BF91AF919F918F917F91CB
S11323606F915F914F913F912F910F900BBE0F9002
S11323700FBE0F901F90189531E1FC013083319707
S113238022E220833197A3E3A083319760833197BE
S113239070833197108231971082319760E860839F
S11323A0319710823197108231971082319762E011
S11323B06083319763E06083319764E06083319791
S11323C065E06083319766E06083319767E06083FE
S11323D0319768E06083319769E06083319760E109
S11323E0608331973083319732E13083319733E121
S11323F03083319734E13083319735E1308331973D
S113240036E13083319737E13083319738E13083D7
S1132410319739E13083319730E23083319731E2BB
S1132420308331972083319723E22083319740838F
S113243031975083319726E22083319727E2208316
S1132440319728E22083319729E22083319720E3D2
S11324502083319721E320838997089582E0809334
S1132460B0001092B20080E38093B300E0E7F0E0A4
S113247080818260808383E08093B100A091140EF8
S1132480B091150ECD91CDBFDD91DEBFFF91EF91DF
S1132490DF91CF91BF91AF919F918F917F916F9178
S11324A05F914F913F912F911F910F91FF90EF906A
S11324B0DF90CF90BF90AF909F908F907F906F9060
S11324C05F904F903F902F901F900F900CBE0F90F5
S11324D00BBE0F900FBE0F90089581E008950F92E8
S11324E00FB6F8940F920BB60F920CB60F921F9280
S11324F011242F923F924F925F926F927F928F920C
S11325009F92AF92BF92CF92DF92EF92FF920F937E
S11325101F932F933F934F935F936F937F938F9367
S11325209F93AF93BF93CF93DF93EF93FF93A091C8
S1132530140EB091150E0DB60D920EB60D92B4D3C5
S1132540A091140EB091150ECD91CDBFDD91DEBFDB
S1132550FF91EF91DF91CF91BF91AF919F918F91B7
S11325607F916F915F914F913F912F911F910F91A7
S1132570FF90EF90DF90CF90BF90AF909F908F909F
S11325807F906F905F904F903F902F901F900F908F
S11325900CBE0F900BBE0F900FBE0F9008950F92BC
S11325A00FB6F8940F920BB60F920CB60F921F92BF
S11325B011242F923F924F925F926F927F928F924B
S11325C09F92AF92BF92CF92DF92EF92FF920F93BE
S11325D01F932F933F934F935F936F937F938F93A7
S11325E09F93AF93BF93CF93DF93EF93FF93A09108
S11325F0140EB091150E0DB60D920EB60D92C0D1FB
S1132600811152D3A091140EB091150ECD91CDBF6E
S1132610DD91DEBFFF91EF91DF91CF91BF91AF913B
S11326209F918F917F916F915F914F913F912F91E6
S11326301F910F91FF90EF90DF90CF90BF90AF90DC
S11326409F908F907F906F905F904F903F902F90CE
S11326501F900F900CBE0F900BBE0F900FBE0F90EB
S113266008959DDF1895E091DC0DF091DD0D8081DA
S1132670811107C08FEF9FEF90931602809315028C
S11326800895E091DC0DF091DD0D0580F681E02DDB
S11326900680F781E02D82819381909316028093C6
S11326A015020895CF93DF93EC01E091140EF0919D
S11326B0150E938382838091C40D9091C50DC81724
S11326C0D90768F46091140E7091150E8091DA0D9B
S11326D09091DB0D6E5F7F4F0E94D50A17C0609109
S11326E0140E7091150E8091DC0D9091DD0D6E5FCE
S11326F07F4F0E94D50A8091150290911602C81747
S1132700D90720F4D0931602C0931502DF91CF911C
S113271008954F925F926F927F928F929F92AF92A1
S1132720BF92CF92DF92EF92FF920F931F93CF93BA
S1132730DF934C015B012A01390181E290E00E94A0
S11327402606EC01009709F4DAC0C114D10409F09B
S1132750BFC0C2010E942606988F8F8B892B09F077
S1132760B9C0CE010E945B06CAC0CF013191DA0123
S11327703D93AD01DC018C91882311F02150A9F720
S113278018A2102F043008F013E01E8B5E01B2E093
S1132790AB0EB11CC5010E94B00ACE010C960E947A
S11327A0B00AD987C88784E090E0811B91099D878E
S11327B08C87DB8BCA8BA301B401C601DDDD998351
S11327C08883E114F10419F0F701D183C0830FB6B3
S11327D0F8940F928091C60D8F5F8093C60D8091FF
S11327E0140E9091150E892BA9F5D093150EC09354
S11327F0140E8091C60D8130E1F580EF9DE00E94BA
S1132800A20A89EF9DE00E94A20A82E09EE00E9453
S1132810A20A8BE09EE00E94A20A87EE9DE00E943D
S1132820A20A8EED9DE00E94A20A81ED9DE00E9425
S1132830A20A88EC9DE00E94A20A87EE9DE0909394
S1132840DD0D8093DC0D8EED9DE09093DB0D809388
S1132850DA0D0FC08091C20D81110BC0E091140EEE
S1132860F091150E8689081720F0D093150EC093A9
S1132870140E8091BE0D8F5F8093BE0D8E89909152
S1132880C30D981710F48093C30D90E09C01220FA0
S1132890331F220F331F220F331F820F931FB501E3
S11328A08051924F0E94B40A0F900FBE8091C20DC6
S11328B0882351F0E091140EF091150E868980174B
S11328C028F40DDE81E01CC081E01AC081E018C04C
S11328D0D88ECF8AF1E04F1A5108CF88D88CC40C17
S11328E0D51CD5018C91898F8C91882309F448CF0C
S11328F0AE01465E5F4FF501319627E036CF8FEF8C
S1132900DF91CF911F910F91FF90EF90DF90CF90C7
S1132910BF90AF909F908F907F906F905F904F90FB
S11329200895AF92BF92CF92DF92EF92FF920F93EE
S1132930A12CB12CC12CD12CE12CF12C00E020E0F5
S113294030E045E550E063EF72E08BE196E1E1DED3
S1132950813041F4F8948093C20D1092C50D109209
S1132960C40D7CDD0F91FF90EF90DF90CF90BF906E
S1132970AF9008958091BD0D8F5F8093BD0D089534
S1132980CF92DF92EF92FF920F931F93CF93DF9337
S11329908091BD0D811199C08091C40D9091C50D98
S11329A001969093C50D8093C40DE090C40DF090F2
S11329B0C50DE114F104B1F48091DC0D9091DD0DAD
S11329C02091DA0D3091DB0D3093DD0D2093DC0D79
S11329D09093DB0D8093DA0D8091BF0D8F5F809310
S11329E0BF0D41DE8091150290911602E816F9069A
S11329F008F454C0D12CCC24C39401C0DC2CE09145
S1132A00DC0DF091DD0D8081811107C08FEF9FEF08
S1132A10909316028093150242C0E091DC0DF09170
S1132A20DD0D0580F681E02DC681D7812A813B81A9
S1132A30E216F30628F430931602209315022FC0F1
S1132A408E010E5F1F4FC8010E94060B8C899D8961
S1132A50892B21F0CE010C960E94060B2E898091C1
S1132A60C30D821710F42093C30D30E0C901880F01
S1132A70991F880F991F880F991F820F931FB80100
S1132A808051924F0E94B40AE091140EF091150EF9
S1132A909E898689981708F0B1CFB1CFD12CE091E7
S1132AA0140EF091150E868990E0FC01EE0FFF1FC5
S1132AB0EE0FFF1FEE0FFF1F8E0F9F1FFC01E05153
S1132AC0F24F8081823040F409C08091C10D8F5F44
S1132AD08093C10DD12C02C0DD24D3948091C00D0C
S1132AE0882311F0DD24D3948D2DDF91CF911F9194
S1132AF00F91FF90EF90DF90CF900895DF92EF92C7
S1132B00FF920F931F93CF93DF930FB6F8940F9216
S1132B108091BD0D81508093BD0D8091BD0D8111BB
S1132B205FC08091C60D882309F45CC00F2EF1EDBF
S1132B30EF2EFDE0FF2EF02DDD24D39430C0E09184
S1132B40D60DF091D70DC681D781CE010C960E9487
S1132B50060B8E010E5F1F4FC8010E94060B8E8963
S1132B609091C30D981710F48093C30D90E09C01CD
S1132B70220F331F220F331F220F331F820F931F85
S1132B80B8018051924F0E94B40AE091140EF09162
S1132B90150E9E898689981710F0D092C00DF70102
S1132BA080818111CCCF8091C10D882391F08091D7
S1132BB0C10D882371F0C1E0E3DE8111C093C00D23
S1132BC08091C10D81508093C10D8091C10D8111FF
S1132BD0F3CF8091C00D813039F481DC81E005C0F0
S1132BE080E003C080E001C080E00F900FBEDF9161
S1132BF0CF911F910F91FF90EF90DF900895CF93A5
S1132C00DF93EC01009799F0B5DE8091C40D9091AB
S1132C10C50DC80FD91F8091140E9091150E029600
S1132C200E94060BCE013EDD69DF811101C057DC35
S1132C30DF91CF9108950F2EF0EFEF2EFDE0FF2EE0
S1132C40F02DC8ECDDE026C095DE188157DF112396
S1132C5009F10FB6F8940F92E091CD0DF091CE0DDD
S1132C6006811781C80102960E94060B8091C60D49
S1132C7081508093C60D8091C70D81508093C70DFC
S1132C800F900FBEF8018789908D0E945B06C801E2
S1132C900E945B068091C70D8111D6CFF701808118
S1132CA08230C0F31CDCF6CF8091BD0D882321F067
S1132CB081E08093C00D08951092C00D8091C30DE2
S1132CC090E0FC01EE0FFF1FEE0FFF1FEE0FFF1F42
S1132CD08E0F9F1FFC01E051F24F8081811117C0BC
S1132CE08091C30D81508093C30D8091C30D90E0FA
S1132CF0FC01EE0FFF1FEE0FFF1FEE0FFF1F8E0FE5
S1132D009F1FFC01E051F24F8081882349F3E09139
S1132D10C30DF0E0CF01880F991F880F991F880F0A
S1132D20991FE80FF91FE051F24FA181B281129669
S1132D300D90BC91A02DB283A183CF010396A81757
S1132D40B90731F412968D919C91139792838183E4
S1132D500180F281E02D868197819093150E8093F6
S1132D60140E08951092830E81E08093810E1092C8
S1132D70800E61E084E10E94332161E085E10E94DC
S1132D803321E9EBF0E080818E7F808380818D7F29
S1132D90808388E48093B80085E48093BC00089520
S1132DA0413208F045C09091830E9111FCCF91E01F
S1132DB09093830E2093810E2FEF2093160E109282
S1132DC05B0E240F20935A0E9093820E9091820EE4
S1132DD0880F892B8093820E8091800E813051F46C
S1132DE01092800E8091820E8093BB0085EC8093BC
S1132DF0BC0003C085EE8093BC008091830E8130BB
S1132E00E1F380915B0E841710F440915B0E442330
S1132E1089F0ECE5FEE0A62FB72F2FEF240F30E06A
S1132E20235A314F91919D93E217F307D9F704C0C8
S1132E3080E00895842F0895842F08950F934132DC
S1132E4008F050C09091830E9111FCCF92E09093C2
S1132E50830E0093810E9FEF9093160E10925B0EDB
S1132E6040935A0E442369F0FB01ACE5BEE06F5F6A
S1132E707F4F4150640F711D91919D93E617F707A1
S1132E80D9F71092820E9091820E880F892B80932D
S1132E90820E8091800E813051F41092800E8091C8
S1132EA0820E8093BB0085EC8093BC0003C085EE4A
S1132EB08093BC00222341F08091830E823021F460
S1132EC08091830E8230E1F38091160E8F3F61F082
S1132ED08091160E803251F08091160E803341F4A9
S1132EE083E007C081E005C080E003C082E001C048
S1132EF084E00F9108956132A8F42091830E243068
S1132F0099F46093380E662389F0FC01AAE3BEE0CD
S1132F1001966150860F911D21912D93E817F907B1
S1132F20D9F706C081E0089582E0089580E008950D
S1132F3080E0089585ED8093BC00ECEBF0E08081A7
S1132F4084FDFDCF1092830E089585EC8093BC0020
S1132F501092830E08951F920F920FB60F921124B0
S1132F600BB60F922F933F934F935F936F937F937F
S1132F708F939F93AF93BF93EF93FF938091B90087
S1132F80887F90E0893C910508F0EEC0FC01EE5882
S1132F90FF4F0C947E228091820E8093BB0085ECBF
S1132FA08093BC00E1C090915B0E80915A0E9817FB
S1132FB080F4E0915B0E81E08E0F80935B0EF0E075
S1132FC0E45AF14F80818093BB0085EC8093BC0070
S1132FD0CBC08091810E882311F0ACDFC5C081E0A5
S1132FE08093800E84EA8093BC001092830EBCC050
S1132FF080E28093160E9EDFB7C080E38093160EA6
S113300099DFB2C088E38093160E9FDFADC0E091D4
S11330105B0E81E08E0F80935B0E8091BB00F0E02D
S1133020E45AF14F808390915B0E80915A0E981769
S113303020F485EC8093BC0097C085E88093BC00A5
S113304093C0E0915B0E81E08E0F80935B0E8091C4
S1133050BB00F0E0E45AF14F80838091810E882315
S113306011F068DF81C081E08093800E84EA809350
S1133070BC001092830E78C05DDF76C083E080933D
S1133080830E1092170E85EC8093BC006DC0809166
S1133090170E803280F4E091170E81E08E0F80933A
S11330A0170E8091BB00F0E0E85EF14F808385EC61
S11330B08093BC0059C085E88093BC0055C08091C2
S11330C0170E803230F4E091170EF0E0E85EF14F15
S11330D0108230DF6091170E70E0E0917C0EF09169
S11330E07D0E88E19EE019951092170E2EDF3CC0EC
S11330F085E88093BC0038C084E08093830E1092EE
S1133100390E1092380EE0917E0EF0917F0E1995D3
S11331108091380E811105C081E08093380E1092A1
S11331203A0EE091390E81E08E0F8093390EF0E073
S1133130E65CF14F80818093BB009091390E8091C1
S1133140380E981720F485EC8093BC000DC085E8F8
S11331508093BC0009C085EC8093BC001092830E60
S113316003C01092160EE6DEFF91EF91BF91AF916E
S11331709F918F917F916F915F914F913F912F918B
S11331800F900BBE0F900FBE0F901F90189580915B
S1133190B40E90E02091B50E821B91090895209100
S11331A0B50E8091B40E281750F4E22FF0E0EA54E3
S11331B0F14F808190E02F5F2093B50E08958FEF3B
S11331C09FEF0895E091B50E8091B40EE81730F4A6
S11331D0F0E0EA54F14F808190E008958FEF9FEF83
S11331E008950895CF92DF92EF92FF920F931F9369
S11331F0CF93DF938C017B016A018091900E882329
S113320099F04115510599F0EB01E40EF51E699111
S1133210D801ED91FC910190F081E02DC801199540
S1133220CE15DF05A1F703C0642FC70164DEC60114
S1133230DF91CF911F910F91FF90EF90DF90CF908E
S11332400895CF93DF931F92CDB7DEB769832091A2
S1133250900E2223E1F02091910E203240F021E0E3
S113326030E0FC013383228380E090E016C080913B
S1133270920EE82FF0E0ED56F14F998190838F5F25
S11332808093920E8093910E81E090E006C061E0FD
S1133290CE01019630DE81E090E00F90DF91CF9176
S11332A00895FC011382128248EE53E060E070E05E
S11332B044835583668377838CEF92E09183808384
S11332C008951092B50E1092B40E1092920E1092B0
S11332D0910E48CD0895862F413208F040E266EB06
S11332E07EE05EDD1092B50E8093B40E089521E069
S11332F0F2CF089581E08093900E6093B30E109204
S1133300920E1092910E08950F93062F21E0409192
S1133310910E63E97EE08091B30E90DD1092920EDF
S11333201092910E1092900E0F91089561E0ECCFDF
S1133330089584E89EE0B5CF08955058BB27AA2786
S11333400ED0FCC1EDD130F0F2D120F031F49F3F2A
S113335011F41EF4BDC10EF4E095E7FBB3C1E92FEF
S1133360FED180F3BA17620773078407950718F034
S113337071F49EF516C20EF4E0950B2EBA2FA02D13
S11333800B01B90190010C01CA01A0011124FF270E
S1133390591B99F0593F50F4503E68F11A16F04009
S11333A0A22F232F342F4427585FF3CF4695379508
S11333B02795A795F0405395C9F77EF41F16BA0BCD
S11333C0620B730B840BBAF09150A1F0FF0FBB1F7B
S11333D0661F771F881FC2F70EC0BA0F621F731FC4
S11333E0841F48F4879577956795B795F7959E3F21
S11333F008F0B3CF9395880F08F09927EE0F9795AF
S1133400879508958DD158F080E891E009F49EEFF6
S11334108ED128F040E851E059F45EEF09C058C15C
S1133420C0C1E92FE0789BD168F3092E052AC1F3C6
S1133430261737074807590738F00E2E07F8E025F6
S113344069F0E025E0640AC0EF6307F8009407FA26
S1133450DB01B9019D01DC01CA01AD01EF9347D045
S11334606DD10AD05F91552331F02BED3FE049E453
S113347050FD49EC63CF0895DF93DD27B92FBF7763
S113348040E85FE31616170648075B0710F4D92FC8
S113349093D19F938F937F936F933AD2E6E7F2E0B1
S11334A01AD14CD12F913F914F915F9198D1DD2347
S11334B049F09058A2EA2AED3FE049EC5FE3D07866
S11334C05D274DDFDF913AC1D9D008F481E008953A
S11334D00CD034C12CD140F023D130F021F45F3F23
S11334E019F0F0C051115EC1F3C039D198F399239A
S11334F0C9F35523B1F3951B550BBB27AA276217B4
S11335007307840738F09F5F5F4F220F331F441FF8
S1133510AA1FA9F333D00E2E3AF0E0E830D0915030
S11335205040E695001CCAF729D0FE2F27D0660F1D
S1133530771F881FBB1F261737074807AB07B0E85C
S113354009F0BB0B802DBF01FF2793585F4F2AF072
S11335509E3F510568F0B6C025C15F3FECF3983E2D
S1133560DCF3869577956795B795F7959F5FC9F7CF
S1133570880F911D9695879597F90895E1E0660F58
S1133580771F881FBB1F621773078407BA0720F0D1
S1133590621B730B840BBA0BEE1F88F7E09508953A
S11335A004D06894B111FEC00895E1D088F09F570B
S11335B090F0B92F9927B751A0F0D1F0660F771F7B
S11335C0881F991F1AF0BA95C9F712C0B13081F05B
S11335D0E8D0B1E00895E5C0672F782F8827B85F59
S11335E039F0B93FCCF3869577956795B395D9F7BC
S11335F03EF490958095709561957F4F8F4F9F4FC6
S11336000895E89409C097FB3EF4909580957095D1
S113361061957F4F8F4F9F4F9923A9F0F92F96E91A
S1133620BB279395F695879577956795B795F1118F
S1133630F8CFFAF4BB0F11F460FF1BC06F5F7F4F2C
S11336408F4F9F4F16C0882311F096E911C077233E
S113365021F09EE8872F762F05C0662371F096E847
S1133660862F70E060E02AF09A95660F771F881F16
S1133670DAF7880F9695879597F90895990F0008BA
S1133680550FAA0BE0E8FEEF16161706E807F90730
S1133690C0F012161306E407F50798F0621B730BCB
S11336A0840B950B39F40A2661F0232B242B252B4C
S11336B021F408950A2609F4A140A6958FEF811DEF
S11336C0811D089597F99F6780E870E060E0089590
S11336D09FEF80EC0895DF93CF931F930F93FF9296
S11336E0EF92DF927B018C01689405C0DA2EEF0122
S11336F076D0FE01E894A591259135914591559197
S1133700AEF3EF012CDEFE019701A801DA9479F7FC
S1133710DF90EF90FF900F911F91CF91DF9108956B
S113372000240A941616170618060906089500249C
S11337300A9412161306140605060895092E039416
S1133740000C11F4882352F0BB0F40F4BF2B11F48A
S113375060FF04C06F5F7F4F8F4F9F4F089557FDE9
S11337609058440F551F59F05F3F71F04795880FEB
S113377097FB991F61F09F3F79F087950895121682
S113378013061406551FF2CF4695F1DF08C016162E
S113379017061806991FF1CF8695710561050894DF
S11337A00895E894BB2766277727CB0197F90895F6
S11337B065DF08F48FEF08959B01AC0160E070E0D1
S11337C080E89FE385CE0BD0B9CFAADF28F0AFDF26
S11337D018F0952309F076CF7BCF1124E3CFBFDF18
S11337E0A0F3959FD1F3950F50E0551F629FF00110
S11337F0729FBB27F00DB11D639FAA27F00DB11D69
S1133800AA1F649F6627B00DA11D661F829F2227F1
S1133810B00DA11D621F739FB00DA11D621F839F78
S1133820A00D611D221F749F3327A00D611D231F4E
S1133830849F600D211D822F762F6A2F11249F579C
S113384050408AF0E1F088234AF0EE0FFF1FBB1FBF
S1133850661F771F881F91505040A9F79E3F51055E
S113386070F030CF9FCF5F3FECF3983EDCF386954A
S113387077956795B795F795E7959F5FC1F7FE2B09
S1133880880F911D9695879597F9089511F40EF474
S11338901FCF41C06CDFD0F39923D9F3CEF39F57E8
S11338A0550B87FF46D00024A0E640EA90018058DB
S11338B05695979528F4805C660F771F881F20F033
S11338C026173707480730F4621B730B840B202933
S11338D031294A2BA69517940794202531254A2788
S11338E058F7660F771F881F20F0261737074807F9
S11338F030F4620B730B840B200D311D411DA09518
S113390081F7B901842F9158880F9695879508956A
S11339109B01AC0158CF9F3F31F0915020F4879523
S113392077956795B795880F911D9695879597F923
S1133930089591505040660F771F881FD2F708955D
S1133940FC01818D228D90E0805C9F4F821B910948
S11339508F7399270895FC01918D828D981731F00A
S1133960828DE80FF11D858D90E008958FEF9FEF14
S11339700895FC01918D828D981761F0828DDF018D
S1133980A80FB11D5D968C91928D9F5F9F73928F4E
S113399090E008958FEF9FEF0895FC01848DDF017F
S11339A0A80FB11DA35ABF4F2C91848D90E00196AE
S11339B08F739078848FA689B7892C93A089B18955
S11339C08C9180648C93938D848D981306C00288A7
S11339D0F389E02D80818F7D80830895CF93DF93D9
S11339E0EC01888D81110AC01AC00FB607FC08C00B
S11339F0808185FF05C00DC0CE01CFDFEA89FB8938
S1133A00808185FDF2CFA889B9898C9186FFEDCF9D
S1133A1006C0A889B9898C9185FFF2CFEDCFDF91DB
S1133A20CF9108950F931F93CF93DF93EC01162F3B
S1133A309B8D8C8D981323C0E889F989808185FD3D
S1133A4025C01DC00FB607FC07C0E889F98980812D
S1133A5085FF02C0CE01A1DF9C8D091799F38B8DE0
S1133A60FE01E80FF11DE35AFF4F10830B8FEA8923
S1133A70FB8980818062808381E0888F0FC08B8D79
S1133A8090E001968F739078082FE6CFEE89FF8936
S1133A906083E889F98980818064808381E090E093
S1133AA0DF91CF911F910F910895CF92DF92EF9202
S1133AB0FF921F93CF93DF93EC016A017B01122FD6
S1133AC0E889F98982E08083411581EE5807610510
S1133AD07105A9F060E079E08DE390E0A70196011B
S1133AE0EBD4BA01A90141505109610971097695D4
S1133AF0679557954795411580E15807A0F0E889E7
S1133B00F989108260E874E88EE190E0A7019601DB
S1133B10D3D4BA01A90141505109610971097695BB
S1133B20679557954795EC85FD855083EE85FF8510
S1133B304083188EEC89FD891083EA89FB89808192
S1133B4080618083EA89FB89808188608083EA8937
S1133B50FB89808180688083EA89FB8980818F7DED
S1133B608083DF91CF911F91FF90EF90DF90CF90F2
S1133B7008951F920F920FB60F9211240BB60F9255
S1133B802F938F939F93AF93BF93EF93FF93E09102
S1133B90E60EF091E70E808182FD17C0E091EC0EF5
S1133BA0F091ED0E20818091EF0E8F5F8F739091D5
S1133BB0F00E891779F0EFEEFEE0A081B0E0AA5292
S1133BC0B14F5D962C93808305C0E091EC0EF0918B
S1133BD0ED0E8081FF91EF91BF91AF919F918F91F5
S1133BE02F910F900BBE0F900FBE0F901F90189542
S1133BF01F920F920FB60F9211240BB60F922F93B0
S1133C003F934F935F936F937F938F939F93AF9360
S1133C10BF93EF93FF9386ED9EE0BFDEFF91EF919C
S1133C20BF91AF919F918F917F916F915F914F91D0
S1133C303F912F910F900BBE0F900FBE0F901F90CE
S1133C4018951092D90E1092D80E88EE93E0A0E049
S1133C50B0E08093DA0E9093DB0EA093DC0EB09369
S1133C60DD0E8CE093E09093D70E8093D60E85EC16
S1133C7090E09093E30E8093E20E84EC90E09093B6
S1133C80E50E8093E40E80EC90E09093E70E809331
S1133C90E60E81EC90E09093E90E8093E80E82ECBE
S1133CA090E09093EB0E8093EA0E86EC90E0909374
S1133CB0ED0E8093EC0E1092EF0E1092F00E109217
S1133CC0F10E1092F20E08951F920F920FB60F92FA
S1133CD011240BB60F922F938F939F93AF93BF939F
S1133CE0EF93FF93E091830FF091840F808182FD25
S1133CF017C0E091890FF0918A0F208180918C0F79
S1133D008F5F8F7390918D0F891779F0ECE8FFE046
S1133D10A081B0E0AD58B04F5D962C93808305C070
S1133D20E091890FF0918A0F8081FF91EF91BF910B
S1133D30AF919F918F912F910F900BBE0F900FBE5B
S1133D400F901F9018951F920F920FB60F92112487
S1133D500BB60F922F933F934F935F936F937F9381
S1133D608F939F93AF93BF93EF93FF9383E79FE06A
S1133D7014DEFF91EF91BF91AF919F918F917F914D
S1133D806F915F914F913F912F910F900BBE0F90C8
S1133D900FBE0F901F9018951092760F1092750F0A
S1133DA088EE93E0A0E0B0E08093770F9093780FD3
S1133DB0A093790FB0937A0F8CE093E09093740FF3
S1133DC08093730F8DEC90E09093800F80937F0F1E
S1133DD08CEC90E09093820F8093810F88EC90E0BC
S1133DE09093840F8093830F89EC90E09093860FD7
S1133DF08093850F8AEC90E09093880F8093870FCF
S1133E008EEC90E090938A0F8093890F10928C0F20
S1133E1010928D0F10928E0F10928F0F0895CF92E3
S1133E20DF92EF92FF920F931F93CF93DF936C0176
S1133E3041155105B1F0062F172FEA01E12CF12CA1
S1133E40D8016D918D01D601ED91FC910190F08125
S1133E50E02DC6011995E80EF91E2197209781F7E8
S1133E6002C0E12CF12CC701DF91CF911F910F917A
S1133E70FF90EF90DF90CF9008956115710581F068
S1133E80FB0101900020E9F73197AF01461B570B66
S1133E90DC01ED91FC910280F381E02D19950895E8
S1133EA080E090E00895DC01ED91FC910190F081B7
S1133EB0E02D199508950F931F93CF93DF93EC0191
S1133EC06DE0F1DF8C016AE0CE01EDDF800F911F20
S1133ED0DF91CF911F910F9108950F931F93CF936B
S1133EE0DF93EC01CADF8C01CE01E5DF800F911F67
S1133EF0DF91CF911F910F9108951F920F920FB6EA
S1133F000F9211242F933F938F939F93AF93BF935B
S1133F108091111090911210A0911310B09114106F
S1133F203091101023E0230F2D3720F40196A11DAA
S1133F30B11D05C026E8230F0296A11DB11D2093D3
S1133F4010108093111090931210A0931310B0933B
S1133F5014108091151090911610A0911710B09123
S1133F6018100196A11DB11D809315109093161081
S1133F70A0931710B0931810BF91AF919F918F9198
S1133F803F912F910F900FBE0F901F9018952FB750
S1133F90F894609111107091121080911310909107
S1133FA014102FBF08953FB7F89480911510909185
S1133FB01610A0911710B091181026B5A89B05C033
S1133FC02F3F19F00196A11DB11D3FBFBA2FA92F94
S1133FD0982F8827820F911DA11DB11DBC01CD0111
S1133FE0660F771F881F991F660F771F881F991FF9
S1133FF00895CF92DF92EF92FF92CF93DF936B01FC
S11340007C01D1DFEB01C114D104E104F10499F086
S113401043D2C9DF6C1B7D0B683E734038F081E0EE
S1134020C81AD108E108F108C851DC4FC114D10401
S1134030E104F10469F7DF91CF91FF90EF90DF90F5
S1134040CF9008950197009739F0880F991F880F32
S1134050991F02970197F1F70895789484B58260C7
S113406084BD84B5816084BD85B5826085BD85B518
S1134070816085BDEEE6F0E0808181608083E1E8C7
S1134080F0E01082808182608083808181608083FF
S1134090E0E8F0E0808181608083E1EBF0E0808102
S11340A084608083E0EBF0E0808181608083E1E9DB
S11340B0F0E0808182608083808181608083E0E998
S11340C0F0E0808181608083E1EAF0E080818260B9
S11340D08083808181608083E0EAF0E08081816078
S11340E08083E1E2F1E0808182608083808181606D
S11340F08083E0E2F1E0808181608083EAE7F0E0A0
S113410080818460808380818260808380818160FB
S113411080838081806880831092C100089590E03C
S1134120FC013197E231F10508F05EC0EE5AFE4F12
S1134130E5C1E0E8F0E080818F7780830895E0E8CE
S1134140F0E080818F7D80830895E0E8F0E0808155
S1134150877F8083089584B58F7784BD089584B55F
S11341608F7D84BD0895E0EBF0E080818F778083BC
S11341700895E0EBF0E080818F7D80830895E0E98D
S1134180F0E080818F7780830895E0E9F0E080811A
S11341908F7D80830895E0E9F0E08081877F8083CC
S11341A00895E0EAF0E080818F7780830895E0EA63
S11341B0F0E080818F7D80830895E0EAF0E08081E3
S11341C0877F80830895E0E2F1E080818F778083A8
S11341D00895E0E2F1E080818F7D80830895E0E23C
S11341E0F1E08081877F80830895CF93DF9390E00F
S11341F0FC01E25FFC4F2491FC01EC5AFC4F8491DA
S1134200882371F190E0880F991FFC01E253FC4F61
S1134210A591B4918C549C4FFC01C591D49161112A
S11342200BC08FB7F8949C91209592239C93E881BE
S11342302E2328838FBF14C0623061F48FB7F894A3
S11342403C91922F909593239C93E8812E2B288365
S11342508FBF06C08FB7F894EC912E2B2C938FBF91
S1134260DF91CF9108951F93CF93DF93C62F282F0B
S113427030E0F901E853FD4F8491F901E25FFC4F0E
S11342801491F901EC5AFC4FD491DD23C1F0811152
S113429046DF2D2F30E0F901EE0FFF1FEC54FC4FE9
S11342A0A591B4918FB7F894C11105C0EC91109504
S11342B01E231C9303C0EC911E2B1C938FBFDF9114
S11342C0CF911F910895CF93DF93282F30E0F90108
S11342D0E853FD4F8491F901E25FFC4FD491F90159
S11342E0EC5AFC4FC491CC2391F0811118DF2C2F90
S11342F030E0F901EE0FFF1FE656FC4FA591B49193
S1134300EC91DE2381E090E021F480E002C080E0C3
S113431090E0DF91CF910895AF92BF92CF92DF9258
S1134320EF92FF920F931F93CF93DF9390E0FC01E2
S1134330E25FFC4FB490FC01EC5AFC4FC491611154
S113434002C0A12C01C0AB2C89019A013F70D0E0BE
S1134350CC0FDD1FC656DC4F80E090E0DC010EC0C0
S1134360AC01BD014F5F5F4F6F4F7F4F80179107C7
S1134370A207B30709F476C0DB01CA01FE01459127
S11343805491FA0140814B21A41651F30EC0AC01A3
S1134390BD014F5F5F4F6F4F7F4F80179107A2079B
S11343A0B30709F463C0DB01CA01FE0145915491CE
S11343B0FA0140814B21A412EACFFE0145915491A8
S11343C0FA0140814B21A41224C080179107A2074F
S11343D0B30709F44FC0C12CD12C76010CC0AC0139
S11343E0BD014C0D5D1D6E1D7F1D041715072607AD
S11343F0370709F443C0FFEFCF1ADF0AEF0AFF0AB9
S1134400FE0145915491FA0140814B21A41639F3E0
S113441003C0C12CD12C7601D701C601880F991F86
S1134420AA1FBB1FC80ED91EEA1EFB1ED701C60158
S1134430880F991FAA1FBB1F880F991FAA1FBB1F94
S1134440880F991FAA1FBB1F4096A11DB11DBC0157
S1134450CD01689413F8969587957795679516948A
S1134460D1F70FC060E070E0CB010BC060E070E0FA
S1134470CB0107C060E070E0CB0103C060E070E0F6
S1134480CB01DF91CF911F910F91FF90EF90DF90BF
S1134490CF90BF90AF9008950895DB018F939F93C1
S11344A042D0BF91AF91A29F800D911DA39F900D0B
S11344B0B29F900D11240895A1E21A2EAA1BBB1BD2
S11344C0FD010DC0AA1FBB1FEE1FFF1FA217B307DC
S11344D0E407F50720F0A21BB30BE40BF50B661FF2
S11344E0771F881F991F1A9469F7609570958095B6
S11344F090959B01AC01BD01CF010895EE0FFF1F04
S11345000590F491E02D1994A29FB001B39FC001CE
S1134510A39F700D811D1124911DB29F700D811DEB
S11345201124911D0895F0DFA59F900DB49F900D67
S1134530A49F800D911D112408950790F691E02DFC
S113454019940F931F93CF93DF93CDB7DEB72E97B4
S11345500FB6F894DEBF0FBECDBF8C0186E08C830E
S11345601A8309838FEF9FE79E838D83CE01019683
S113457010D0EF81F885E00FF11F10822E960FB650
S1134580F894DEBF0FBECDBFDF91CF911F910F9185
S113459008952F923F924F925F926F927F928F92E3
S11345A09F92AF92BF92CF92DF92EF92FF920F93BE
S11345B01F93CF93DF93CDB7DEB72C970FB6F89444
S11345C0DEBF0FBECDBF7C016B018A01FC011782E7
S11345D01682838181FFB0C1CE0101964C01F7019F
S11345E09381F60193FD859193FF81916F01882357
S11345F009F49EC1853239F493FD859193FF81912D
S11346006F01853221F4B70190E0C7D1E8CF512C76
S1134610312C20E02032A0F48B3269F030F4803267
S113462059F0833269F420612CC08D3239F0803323
S113463039F4216026C02260246023C0286021C090
S113464027FD27C030ED380F3A3078F426FF06C036
S1134650FAE05F9E300D1124532E13C08AE0389E79
S1134660300D1124332E20620CC08E3221F426FD2D
S11346705FC1206406C08C3611F4206802C08836FD
S113468041F4F60193FD859193FF81916F018111AE
S1134690C1CF982F9F7D9554933028F40C5F1F4F02
S11346A0FFE3F9830DC0833631F0833771F083352E
S11346B009F057C021C0F801808189830E5F1F4F24
S11346C044244394512C540114C03801F2E06F0E79
S11346D0711CF801A080B18026FF03C0652D70E035
S11346E002C06FEF7FEFC5012C874CD12C018301F1
S11346F02C852F77222E16C03801F2E06F0E711C24
S1134700F801A080B18026FF03C0652D70E002C0CF
S11347106FEF7FEFC5012C872AD12C012C852068EF
S1134720222E830123FC19C0832D90E048165906DC
S1134730A0F4B70180E290E030D13A94F5CFF501CE
S113474027FC859127FE81915F01B70190E025D177
S113475031103A94F1E04F1A51084114510479F799
S1134760DEC0843611F0893631F5F80127FF07C021
S113477060817181828193810C5F1F4F08C06081C9
S11347807181882777FD8095982F0E5F1F4F2F76B4
S1134790B22E97FF09C090958095709561957F4FD3
S11347A08F4F9F4F2068B22E2AE030E0A40127D11A
S11347B0A82EA81843C0853729F42F7EB22E2AE0EC
S11347C030E025C0F22FF97FBF2E8F36C1F018F4E8
S11347D0883579F0ADC0803719F0883721F0A8C04A
S11347E02F2F2061B22EB4FE0DC08B2D8460B82E05
S11347F009C024FF0AC09F2F9660B92E06C028E086
S113480030E005C020E130E002C020E132E0F801F0
S1134810B7FE07C060817181828193810C5F1F4F55
S113482006C06081718180E090E00E5F1F4FA4019B
S1134830E6D0A82EA818FB2DFF77BF2EB6FE0BC01E
S11348402B2D2E7FA51450F4B4FE0AC0B2FC08C070
S11348502B2D2E7E05C07A2C2B2D03C07A2C01C063
S1134860752C24FF0DC0FE01EA0DF11D80818033FB
S113487011F4297E09C022FF06C07394739404C006
S1134880822F867809F0739423FD12C020FF06C09E
S11348905A2C731418F4530C5718732C731460F4B3
S11348A0B70180E290E02C8778D073942C85F6CF02
S11348B0731410F4371801C0312C24FF11C0B70150
S11348C080E390E02C8769D02C8522FF16C021FF5D
S11348D003C088E590E002C088E790E0B7010CC00F
S11348E0822F867851F021FD02C080E201C08BE264
S11348F027FD8DE2B70190E050D0A51430F4B70144
S113490080E390E04AD05A94F8CFAA94F401EA0DD7
S1134910F11D8081B70190E040D0A110F6CF332083
S113492009F45DCEB70180E290E037D03A94F7CF36
S1134930F7018681978102C08FEF9FEF2C960FB607
S1134940F894DEBF0FBECDBFDF91CF911F910F91C1
S1134950FF90EF90DF90CF90BF90AF909F908F909B
S11349607F906F905F904F903F902F900895FC013F
S11349700590615070400110D8F7809590958E0F86
S11349809F1F0895FC016150704001900110D8F7F9
S1134990809590958E0F9F1F08950F931F93CF932B
S11349A0DF93182F092FEB018B8181FD03C08FEF5B
S11349B09FEF20C082FF10C04E815F812C813D811A
S11349C0421753077CF4E881F9819F012F5F3F4F21
S11349D039832883108306C0E885F985812F1995CA
S11349E0892B29F72E813F812F5F3F4F3F832E83F1
S11349F0812F902FDF91CF911F910F910895FA018C
S1134A00AA27283051F1203181F1E8946F936E7F09
S1134A106E5F7F4F8F4F9F4FAF4FB1E03ED0B4E0FA
S1134A203CD0670F781F891F9A1FA11D680F791F3B
S1134A308A1F911DA11D6A0F711D811D911DA11D4C
S1134A4020D009F468943F912AE0269F112430195C
S1134A50305D3193DEF6CF010895462F4770405DF7
S1134A604193B3E00FD0C9F7F6CF462F4F70405DA6
S1134A704A3318F0495D31FD4052419302D0A9F701
S1134A80EACFB4E0A6959795879577956795BA95FB
S1134A90C9F700976105710508959B01AC010A2EC1
S1134AA006945795479537952795BA95C9F7620F98
S1114AB0731F841F951FA01D0895F894FFCF57
S1134ABE3231332D2E2F30313233343536373839B7
S1134ACE2A30233200FFFFC8F471F332F9CB0B24E2
S1134ADE0CF20D018001800180FF7FFF7FFF7F5468
S1134AEE61736B5F68656164696E67007461736B93
S1134AFE20706F6C6C2073656E736F7200746173CB
S1134B0E6B206B6579706164007461736B20636FE5
S1134B1E6D6D002564205F6873202025645F6272CA
S1134B2E6B76616C202564205F7653746172740019
S1134B3E596F75206861766520707265737365644C
S1134B4E2000256300256420256420256420256427
S1134B5E2025640025645F525A6176616C002564D9
S1134B6E200064617461002400210040005E002373
S1134B7E0030202564203120256420322025642035
S1134B8E33202564203420256420352025642036E6
S1134B9E202564203720256400000000006106668D
S1134BAE066B0649444C4500000000002119F2181A
S1134BBEC718CF18E218F11800000000121D0F1FBD
S10B4BCEA01CB91CAB1CEE1C79
S9030000FC
