:10000000ABC00000C8C00000C6C00000C4C00000F3
:10001000C2C00000C0C00000BEC00000BCC00000E4
:10002000BAC00000B8C00000B6C00000B4C00000F4
:10003000B2C00000B0C00000AEC00000ACC0000004
:10004000AAC00000A8C00000A6C00000A4C0000014
:10005000A2C000002DC300009EC0000090C600009A
:100060009AC0000098C0000096C0000094C0000034
:1000700092C0000090C000008EC000008CC0000044
:100080008AC0000088C0000086C0000084C0000054
:1000900082C0000080C000007EC000007CC0000064
:1000A0007AC0000078C0000076C0000074C0000074
:1000B00072C0000070C000006EC000006CC0000084
:1000C0006AC0000068C0000066C0000064C0000094
:1000D00062C0000060C000005EC000005CC00000A4
:1000E0005AC0000087078B0775077B078107D00779
:1000F0008F0795079B07A107A707AD07B307B907A8
:10010000D007BF07C507CB070000000800020100A9
:1001100000030407000000000000000001020408C2
:100120001020408001020408102001020408102061
:10013000040404040404040402020202020203038D
:100140000303030300000000250028002B0000002B
:100150000000240027002A0011241FBECFEFD1E2A7
:10016000DEBFCDBF00E00CBF12E0A0E0B2E0EEE8E1
:10017000F0E100E00BBF02C007900D92A631B1077D
:10018000D9F728E0A6E1B2E001C01D92A835B20778
:10019000E1F71CD07AC734CF61E08DE040D788EB1F
:1001A0009BE03ED560E08DE03AD788EB9BE038D508
:1001B000F3CF61E08CE033D788EE93E031D560E097
:1001C0008CE02DD788EE93E02BD5F3CFAF92BF9282
:1001D000CF92DF92EF92FF920F93CF93DF9300D0F5
:1001E0001F92CDB7DEB715D661E08CE0DAD661E0BC
:1001F0008DE0D7D6A12CB12CC12CD12CCE010396E9
:100200007C0106E020E030E040E450E062E072E093
:100210008CEC90E0A3D2CE0101967C0105E020E0B9
:1002200030E040E450E069E072E089ED90E096D281
:100230008FD380E090E00F900F900F900F90DF91A0
:10024000CF910F91FF90EF90DF90CF90BF90AF9044
:100250000895CF93DF93EC01A4D38091160290917F
:100260001702892B31F48BE192E09093170280936F
:10027000160240911802509119029E01240F351F59
:100280002B3D85E0380770F44217530770F4C09196
:100290001602D0911702C40FD51F30931902209374
:1002A000180205C0C0E0D0E002C0C0E0D0E03AD4FF
:1002B000CE01DF91CF9108950895FC0103969283BA
:1002C00081832FEF3FEF3483238396838583908749
:1002D000878310820895FC01118610860895CF93BC
:1002E000DF939C01FB01DC011196CD91DC9112970B
:1002F000D383C2838C819D81958384838C819D81EE
:10030000DC0113967C936E9312977D836C83318707
:100310002087F90180818F5F8083DF91CF910895DD
:10032000CF93DF93EB01488159814F3F2FEF520765
:1003300021F4FC01A781B0850DC0DC011396129653
:10034000ED91FC911397208131814217530710F0F2
:10035000DF01F5CF1296ED91FC911397FB83EA83B1
:10036000D583C483BD83AC831396DC93CE9312975D
:1003700099878887FC0120812F5F2083DF91CF91AF
:100380000895CF93DF93FC01A085B185C281D3810D
:10039000848195819D838C83C481D5818281938161
:1003A0009B838A831196CD91DC911297CE17DF073C
:1003B00031F48C819D8112969C938E9311971186B6
:1003C00010868C9181508C93DF91CF91089531E10B
:1003D000FC013083319722E220833197A3E3A0838D
:1003E00031976083319770833197108231971082F3
:1003F000319760E86083319710823197108231978E
:100400001082319762E06083319763E060833197B7
:1004100064E06083319765E06083319766E06083D4
:10042000319767E06083319768E06083319769E0D6
:100430006083319760E1608331973083319732E197
:100440003083319733E13083319734E13083319712
:1004500035E13083319736E13083319737E13083AE
:10046000319738E13083319739E13083319730E289
:100470003083319731E2308331972083319723E203
:1004800020833197408331975083319726E2208330
:10049000319727E22083319728E22083319729E2A0
:1004A0002083319720E32083319721E320838997AC
:1004B000089582E084BD16BC80E387BDEEE6F0E0DF
:1004C00080818260808383E085BDA0914D08B091DA
:1004D0004E08CD91CDBFDD91DEBFFF91EF91DF9151
:1004E000CF91BF91AF919F918F917F916F915F91CC
:1004F0004F913F912F911F910F91FF90EF90DF90BF
:10050000CF90BF90AF909F908F907F906F905F90B3
:100510004F903F902F901F900F900CBE0F900BBEEE
:100520000F900FBE0F90089581E008950F920FB6BF
:10053000F8940F920BB60F920CB60F921F921124E3
:100540002F923F924F925F926F927F928F929F92E3
:10055000AF92BF92CF92DF92EF92FF920F931F93D1
:100560002F933F934F935F936F937F938F939F93BB
:10057000AF93BF93CF93DF93EF93FF93A0914D0879
:10058000B0914E080DB60D920EB60D929AD3A09171
:100590004D08B0914E08CD91CDBFDD91DEBFFF91EA
:1005A000EF91DF91CF91BF91AF919F918F917F910B
:1005B0006F915F914F913F912F911F910F91FF90FC
:1005C000EF90DF90CF90BF90AF909F908F907F90F3
:1005D0006F905F904F903F902F901F900F900CBEA8
:1005E0000F900BBE0F900FBE0F9008950F920FB695
:1005F000F8940F920BB60F920CB60F921F92112423
:100600002F923F924F925F926F927F928F929F9222
:10061000AF92BF92CF92DF92EF92FF920F931F9310
:100620002F933F934F935F936F937F938F939F93FA
:10063000AF93BF93CF93DF93EF93FF93A0914D08B8
:10064000B0914E080DB60D920EB60D92B0D181113B
:1006500038D3A0914D08B0914E08CD91CDBFDD911A
:10066000DEBFFF91EF91DF91CF91BF91AF919F914D
:100670008F917F916F915F914F913F912F911F913A
:100680000F91FF90EF90DF90CF90BF90AF909F9031
:100690008F907F906F905F904F903F902F901F9022
:1006A0000F900CBE0F900BBE0F900FBE0F900895D1
:1006B0009DDF1895E0911508F09116088081811151
:1006C00007C08FEF9FEF909301028093000208957F
:1006D000E0911508F09116080580F681E02D06805E
:1006E000F781E02D82819381909301028093000233
:1006F0000895CF93DF93EC01E0914D08F0914E08FF
:10070000938382838091FD079091FE07C817D907D4
:1007100060F460914D0870914E088091130890919B
:1007200014086E5F7F4FFCDD16C060914D0870911C
:100730004E0880911508909116086E5F7F4FF0DD8E
:100740008091000290910102C817D90720F4D0933C
:100750000102C0930002DF91CF9108954F925F9202
:100760006F927F928F929F92AF92BF92CF92DF92C1
:10077000EF92FF920F931F93CF93DF934C015B0196
:100780002A01390181E290E064DDEC01009709F46F
:10079000CDC0C114D10409F0B2C0C2015ADD988F96
:1007A0008F8B892B09F0ADC0CE0186DDBFC0CF0194
:1007B0003191DA013D93AD01DC018C91882311F078
:1007C0002150A9F718A2102F043008F013E01E8B57
:1007D0005E01B2E0AB0EB11CC5017DDDCE010C9611
:1007E0007ADDD987C88784E090E0811B91099D87D5
:1007F0008C87DB8BCA8BA301B401C601E8DD99832A
:100800008883E114F10419F0F701D183C0830FB696
:10081000F8940F928091FF078F5F8093FF0780917C
:100820004D0890914E08892B69F5D0934E08C093DE
:100830004D088091FF078130A1F589E298E03DDD08
:1008400082E398E03ADD8BE398E037DD84E498E0DA
:1008500034DD80E298E031DD87E198E02EDD8AE04A
:1008600098E02BDD81E098E028DD80E298E090932D
:1008700016088093150887E198E0909314088093F8
:1008800013080FC08091FB0781110BC0E0914D0848
:10089000F0914E088689081720F0D0934E08C09337
:1008A0004D088091F7078F5F8093F7078E899091AD
:1008B000FC07981710F48093FC0790E09C01220F2E
:1008C000331F220F331F220F331F820F931FB501D7
:1008D000875D974F04DD0F900FBE8091FB07882343
:1008E00051F0E0914D08F0914E088689801728F468
:1008F0001DDE81E01CC081E01AC081E018C0D88EE6
:10090000CF8AF1E04F1A5108CF88D88CC40CD51C7F
:10091000D5018C91898F8C91882309F453CFAE0136
:10092000465E5F4FF501319627E041CF8FEFDF91B3
:10093000CF911F910F91FF90EF90DF90CF90BF90DC
:10094000AF909F908F907F906F905F904F900895A1
:10095000AF92BF92CF92DF92EF92FF920F93A12CB2
:10096000B12CC12CD12CE12CF12C00E020E030E0A6
:1009700045E550E060E172E08BE296E0EFDE813029
:1009800041F4F8948093FB071092FE071092FD0744
:1009900090DD0F91FF90EF90DF90CF90BF90AF90E0
:1009A00008958091F6078F5F8093F6070895CF92A0
:1009B000DF92EF92FF920F931F93CF93DF9380917B
:1009C000F607811196C08091FD079091FE07019670
:1009D0009093FE078093FD07E090FD07F090FE07DF
:1009E000E114F104B1F4809115089091160820915A
:1009F000130830911408309316082093150890932B
:100A00001408809313088091F8078F5F8093F8078C
:100A100051DE8091000290910102E816F90608F477
:100A200051C0D12CCC24C39401C0DC2CE09115081A
:100A3000F09116088081811107C08FEF9FEF90938E
:100A40000102809300023FC0E0911508F091160862
:100A50000580F681E02DC681D7812A813B81E2168F
:100A6000F30628F430930102209300022CC08E017B
:100A70000E5F1F4FC80185DC8C899D89892B19F079
:100A8000CE010C967EDC2E898091FC07821710F433
:100A90002093FC0730E0C901880F991F880F991F28
:100AA000880F991F820F931FB801875D974F17DC3E
:100AB000E0914D08F0914E089E898689981708F0BC
:100AC000B4CFB4CFD12CE0914D08F0914E08868977
:100AD00090E0FC01EE0FFF1FEE0FFF1FEE0FFF1F58
:100AE0008E0F9F1FFC01E75DF74F8081823040F43D
:100AF00009C08091FA078F5F8093FA07D12C02C05A
:100B0000DD24D3948091F907882311F0DD24D39458
:100B10008D2DDF91CF911F910F91FF90EF90DF907E
:100B2000CF900895DF92EF92FF920F931F93CF9390
:100B3000DF930FB6F8940F928091F607815080935F
:100B4000F6078091F60781115CC08091FF0788232A
:100B500009F459C00F2EFAE0EF2EF8E0FF2EF02D29
:100B6000DD24D3942DC0E0910F08F0911008C681C8
:100B7000D781CE010C9605DC8E010E5F1F4FC80198
:100B800000DC8E899091FC07981710F48093FC0785
:100B900090E09C01220F331F220F331F220F331FBF
:100BA000820F931FB801875D974F99DBE0914D0845
:100BB000F0914E089E898689981710F0D092F90717
:100BC000F70180818111CFCF8091FA07882391F0BE
:100BD0008091FA07882371F0C1E0E9DE8111C093AA
:100BE000F9078091FA0781508093FA078091FA07FC
:100BF0008111F3CF8091F907813039F497DC81E0DE
:100C000005C080E003C080E001C080E00F900FBE0F
:100C1000DF91CF911F910F91FF90EF90DF9008959A
:100C2000CF93DF93EC01009791F0BBDE8091FD073D
:100C30009091FE07C80FD91F80914D0890914E08E2
:100C400002969FDBCE0155DD6DDF811101C06EDCA8
:100C5000DF91CF9108950F2EF9E2EF2EF8E0FF2EED
:100C6000F02DC1E0D8E023C09CDE18815BDF1123AA
:100C7000F1F00FB6F8940F92E0910608F091070892
:100C800006811781C80102967CDB8091FF078150A5
:100C90008093FF07809100088150809300080F9097
:100CA0000FBEF8018789908D07DBC80105DB8091B5
:100CB00000088111D9CFF70180818230C0F336DC82
:100CC000F6CF8091F607882321F081E08093F90721
:100CD00008951092F9078091FC0790E0FC01EE0F57
:100CE000FF1FEE0FFF1FEE0FFF1F8E0F9F1FFC0158
:100CF000E75DF74F8081811117C08091FC0781501B
:100D00008093FC078091FC0790E0FC01EE0FFF1F31
:100D1000EE0FFF1FEE0FFF1F8E0F9F1FFC01E75D01
:100D2000F74F8081882349F3E091FC07F0E0CF0181
:100D3000880F991F880F991F880F991FE80FF91FB7
:100D4000E75DF74FA181B28112960D90BC91A02D65
:100D5000B283A183CF010396A817B90731F4129685
:100D60008D919C911397928381830180F281E02D74
:100D70008681978190934E0880934D0808951F9225
:100D80000F920FB60F9211242F933F938F939F933F
:100D9000AF93BF938091500890915108A091520851
:100DA000B091530830914F0823E0230F2D3720F4E2
:100DB0000196A11DB11D05C026E8230F0296A11DB5
:100DC000B11D20934F088093500890935108A09331
:100DD0005208B09353088091540890915508A091FF
:100DE0005608B09157080196A11DB11D8093540873
:100DF00090935508A0935608B0935708BF91AF91B0
:100E00009F918F913F912F910F900FBE0F901F9048
:100E10001895789484B5826084BD84B5816084BD62
:100E200085B5826085BD85B5816085BDEEE6F0E063
:100E3000808181608083E1E8F0E0108280818260BF
:100E40008083808181608083E0E8F0E08081816040
:100E50008083E1EBF0E0808184608083E0EBF0E070
:100E6000808181608083E1E9F0E08081826080831D
:100E7000808181608083E0E9F0E08081816080830F
:100E8000E1EAF0E0808182608083808181608083FC
:100E9000E0EAF0E0808181608083E1E2F1E080813E
:100EA00082608083808181608083E0E2F1E08081E4
:100EB00081608083EAE7F0E08081846080838081C4
:100EC000826080838081816080838081806880836C
:100ED0001092C100089590E0FC013197E231F105D4
:100EE00008F05EC0EE58FF4FCAC0E0E8F0E0808135
:100EF0008F7780830895E0E8F0E080818F7D8083A4
:100F00000895E0E8F0E08081877F8083089584B5CC
:100F10008F7784BD089584B58F7D84BD0895E0EBFF
:100F2000F0E080818F7780830895E0EBF0E08081AE
:100F30008F7D80830895E0E9F0E080818F77808362
:100F40000895E0E9F0E080818F7D80830895E0E9F5
:100F5000F0E08081877F80830895E0EAF0E080817F
:100F60008F7780830895E0EAF0E080818F7D808331
:100F70000895E0EAF0E08081877F80830895E0E2D1
:100F8000F1E080818F7780830895E0E2F1E0808155
:100F90008F7D80830895E0E2F1E08081877F808308
:100FA0000895CF93DF9390E0FC01E45EFE4F24911F
:100FB000FC01E05DFE4F8491882371F190E0880F81
:100FC000991FFC01E25BFE4FA591B4918C5B9E4F93
:100FD000FC01C591D49161110BC08FB7F8949C911D
:100FE000209592239C93E8812E2328838FBF14C0E1
:100FF000623061F48FB7F8943C91922F90959323CF
:101000009C93E8812E2B28838FBF06C08FB7F8945E
:10101000EC912E2B2C938FBFDF91CF9108951F93CE
:10102000CF93DF93C62F282F30E0F901E85FFE4F02
:101030008491F901E45EFE4F1491F901E05DFE4FE9
:10104000D491DD23C1F0811146DF2D2F30E0F9016D
:10105000EE0FFF1FEC5BFE4FA591B4918FB7F89494
:10106000C11105C0EC9110951E231C9303C0EC9197
:101070001E2B1C938FBFDF91CF911F910895EE0F10
:0E108000FF1F0590F491E02D1994F894FFCF16
:10108E00FFFF5461736B2031005461736B2032008B
:06109E0049444C4500002E
:00000001FF
