S01400004672656552544F53323536302E7372656379
S113000020C200004EC200004CC200004AC20000E0
S113001048C2000046C2000044C2000042C20000C0
S113002040C200003EC200003CC200003AC20000D0
S113003038C200000C94FB0934C2000032C2000034
S113004030C200002EC200002CC200002AC20000F0
S113005028C2000026C2000024C200000C94D5155A
S113006020C200000C94BC140C94FB141AC20000AF
S113007018C2000016C2000014C2000012C2000020
S113008010C200000EC200000CC200000AC2000030
S113009008C2000006C2000004C200000C945D0EF9
S11300A000C20000FEC10000FCC10000FAC1000053
S11300B0F8C10000FEC70000F4C10000F2C1000056
S11300C0F0C10000EEC10000ECC10000EAC1000074
S11300D0E8C10000E6C10000E4C10000E2C1000084
S11300E0E0C10000630F660F660F660F660F660FB0
S11300F0660F660F7D0E660F660F660F660F660F3E
S1130100660F660F7D0E660F660F660F660F660F2D
S1130110660F660F850E660F660F660F660F660F15
S1130120660F660FAA0E660F660F660F660F660FE0
S1130130660F660F850E660F660F660F660F660FF5
S1130140660F660FAF0E660F660F660F660F660FBB
S1130150660F660FB40E660F660F660F660F660FA6
S1130160660F660FC50E660F660F660F660F660F85
S1130170660F660FEE0E660F660F660F660F660F4C
S1130180660F660FB90E660F660F660F660F660F71
S1130190660F660FD30E660F660F660F660F660F47
S11301A0660F660FF00E660F660F660F660F660F1A
S11301B0660F660FF00E660F660F660F660F660F0A
S11301C0660F660FF00E660F660F660F660F660FFA
S11301D0660F660FF00E660F660F660F660F660FEA
S11301E0660F660FF90E660F660F660F660F660FD1
S11301F0660F660F2A0F660F660F660F660F660F8F
S1130200660F660FF90E660F660F660F660F660FB0
S1130210660F660F2A0F660F660F660F660F660F6E
S1130220660F660F110F660F660F660F660F660F77
S1130230660F660F2E0F660F660F660F660F660F4A
S1130240660F660F2E0F660F660F660F660F660F3A
S1130250660F660F430F660F660F660F660F660F15
S1130260660F660F5D0F660F660F660F660F660FEB
S1130270660F660F5D0F07634236B79BD8A71A391E
S1130280685618AEBAAB558C1D3CB7CC5763BD6DE0
S1130290EDFD753EF6177231BF000000803F080087
S11302A00000BE922449123EABAAAA2ABECDCCCCF1
S11302B04C3E00000080BEABAAAAAA3E000000008B
S11302C0BF000000803F0000000000084178D3BB5D
S11302D04387D1133D190E3CC3BD4282AD2B3E680A
S11302E0EC8276BED98FE1A93E4C80EFFFBE01C4FB
S11302F0FF7F3F0000000000EC16F016DA16E0164F
S1130300E6163517F416FA16001706170C17121707
S113031018171E17351724172A17301700000A0B51
S113032002090C0D0E080703040100000000000080
S113033000000000000000000000000000000000B9
S11303400000000000000000121110000000000076
S11303500000000000000000000000000000000099
S113036000000102102020080810204010204080C6
S11303700201020108040201010204081020408065
S113038080402010080402018004020180402010F3
S1130390080402010804020101020408102040803C
S11303A0010204081020408005050505070508081A
S11303B00808020202020A0A0808040404040101EB
S11303C00101010101010303030303030303040700
S11303D007070C0C0C0C0C0C0C0C02020202060697
S11303E00606060606060B0B0B0B0B0B0B0B00008D
S11303F020002300260029002C002F0032000001D9
S11304000000030106010901000022002500280064
S11304102B002E0031003400020100000501080108
S11304200B0100002100240027002A002D003000C9
S1130430330001010000040107010A01B4024B105A
S1130440241511241FBECFEFD1E2DEBFCDBF00E0E3
S11304500CBF12E0A0E0B2E0E0E7F5E300E00BBF80
S113046002C007900D92AC3AB107D9F72EE0ACEA7E
S1130470B2E001C01D92AC3FB207E1F714E0C2E460
S1130480D4E000E006C022970109FE010BBF0E94E0
S1130490F617CC33D10780E00807A9F72CD00C94C9
S11304A0B61AAECD26E040E052EC61E070E086E59D
S11304B09EE00E94581484E09EE00E94131042E0E3
S11304C063E089ED96E0D3D189ED96E08FD182ED9A
S11304D096E038D342E064E08CEA96E0B6D48CEA45
S11304E096E04AD461E086E10E94361760E088E134
S11304F00C9436170895AF92BF92CF92DF92EF9289
S1130500FF920F93CF93DF931F921F92CDB7DEB765
S11305100E946E16C7DF61E08CE00E94361761E02E
S11305208DE00E943617A12CB12CC12CD12CCE0108
S113053001967C0105E020E030E040E850E063E211
S113054072E084EF92E0ADD70E944B0B80E090E024
S11305500F900F90DF91CF910F91FF90EF90DF906C
S1130560CF90BF90AF900895EF920F9328EC30E0B6
S113057048E166E189E497E044D50F2EF3E0EF2EDD
S1130580F02D04E020E032E043E052E067E072E066
S113059085EE96E0A9D089ED96E001D182ED96E052
S11305A088D28CEA96E081D30F91EF900895BC0134
S11305B086E59EE00E94C51586E59EE00C94F11345
S11305C00895CF93DF93CDB7DEB7FE0136966191E0
S11305D07191AF018CEA92E00E94FA178CEA92E0E2
S11305E0E6DFDF91CF910895CDE2D2E082ED96E08F
S11305F00BD36B017C0120E030E54DE754E45FD27E
S11306004B015C0182ED96E03BD30E941C117F9369
S11306106F93C501B4010E941C117F936F93C701AE
S1130620B6010E941C117F936F93DF93CF93C9DFB0
S113063068EE73E080E090E00E94451688EE93E057
S11306400E94B30C8DB79EB708960FB6F8949EBF60
S11306500FBE8DBFCBCFCF93DF93EC010E94740B01
S113066080915B0790915C07892B31F480E697E0D9
S113067090935C0780935B0740915D0750915E0700
S11306809E01240F351F2B3D85E0380770F4421777
S1130690530770F4C0915B07D0915C07C40FD51F5A
S11306A030935E0720935D0705C0C0E0D0E002C030
S11306B0C0E0D0E00E94350CCE01DF91CF910895C7
S11306C00895FC011082138214820895862F642FEA
S11306D00C9436170895862F642F0C94741708957C
S11306E0862F0C94A41708954F925F926F927F9275
S11306F08F929F92AF92BF92CF92DF92EF920F931D
S1130700CF93DF93EC014B013A0159010296D9DFF3
S113071080E892E0998388832E018BE1480E511C76
S1130720620182E3C80ED11CC201CBDF85E0480E12
S1130730511C4C145D04C1F7FE01E95AFF4F71824C
S113074060823296B182A082329600833196E08232
S113075037979182808238968AE090E091838083F3
S1130760329684EF91E091838083339611821082D4
S113077071971082118212821382CF59DF4F18822F
S1130780DF91CF910F91EF90DF90CF90BF90AF901A
S11307909F908F907F906F905F904F900895FC0191
S11307A083E0878312861186138608950F931F931F
S11307B0CF93DF93EC01062F142F688584E09EE02D
S11307C00E942C10602F84E09EE00E94D30F612FC2
S11307D084E09EE00E94D30F84E09EE00E944810D3
S11307E08E83DF91CF911F910F910895CF93DF9363
S11307F0EC018F81823021F440E069E3CE01D6DF41
S113080040E063E2CE01D2DF4FE660E2CE01CEDF0C
S1130810DF91CF910895CF93DF93C62FD42F84E037
S11308209EE00E942C106D2F84E09EE00E94D30F66
S113083084E09EE00E944810811111C041E06C2FB9
S113084084E09EE00E94291084E09EE00E94790FDB
S1130850892B41F084E09EE00E94810F05C08FEF58
S11308609FEF02C08FEF9FEFDF91CF9108950F9319
S11308701F93CF93DF93EC01162F042F633009F4F9
S113088056C04230C9F556C0133009F058C0873DF0
S1130890910509F458C001E011E02CC0013091F039
S11308A04FE06AE6CE01B7DF8F3F2FEF920751F09A
S11308B0133009F046C0873D910509F047C000E0B8
S11308C012E018C0133011F0111114C0002349F0C4
S11308D04FE069E6CE019FDF833D9105D1F1013000
S11308E039F04FE068E6CE0196DF833D910599F13A
S11308F01330B9F00230B9F01F83112351F01330D3
S1130900A0F4013011F48BE601C08AE6888781E007
S113091041C0013011F489E601C088E6888781E08E
S113092039C080E037C080E035C081E033C0442363
S113093041F11EC08FEF860F833030F60FC001E007
S1130940C3CF00E0C1CF01E012E0D4CF00E011E05A
S1130950D1CF01E001C000E01F82DBCF4FE06BE6A6
S1130960CE0159DF8F3F2FEF920709F08DCF98CF3B
S11309704FE06BE650DF8F3F2FEF920709F087CFF0
S11309808DCF4FE06AE647DF8F3F2FEF920709F0E4
S113099092CF98CFDF91CF911F910F910895FC01D1
S11309A00396928381832FEF3FEF348323839683CF
S11309B085839087878310820895FC0111861086B1
S11309C00895CF93DF939C01FB01DC011196CD9137
S11309D0DC911297D383C2838C819D819583848318
S11309E08C819D81DC0113967C936E9312977D8399
S11309F06C8331872087F90180818F5F8083DF9149
S1130A00CF910895CF93DF93EB01488159814F3FF4
S1130A102FEF520721F4FC01A781B0850DC0DC0142
S1130A2013961296ED91FC91139720813181421710
S1130A30530710F0DF01F5CF1296ED91FC91139757
S1130A40FB83EA83D583C483BD83AC831396DC9391
S1130A50CE93129799878887FC0120812F5F20838A
S1130A60DF91CF910895CF93DF93FC01A085B185E9
S1130A70C281D381848195819D838C83C481D581F6
S1130A80828193819B838A831196CD91DC91129705
S1130A90CE17DF0731F48C819D8112969C938E933F
S1130AA01197118610868C9181508C93DF91CF9190
S1130AB0089522E0FC0120832DE5218308950E94FE
S1130AC0B4102EE434ED42E45EE30E946A129B010A
S1130AD0AC0160E070E080E89FE30E944F102DECD1
S1130AE03AE24DE257E40C94071208951F93CF9312
S1130AF0DF93EB01142FDD233CF4FC01E61BF70B21
S1130B00C281DD27C7FDD095FC01618184E09EE0B0
S1130B100E942C10E091040EF091050E0190F081DA
S1130B20E02D6C2F84E09EE01995612F84E09EE017
S1130B300E94D30F84E09EE00E944810DF91CF9181
S1130B401F910895FC012081213029F440EB60E2DB
S1130B5070E0CCCF0895211104C040EE60E270E053
S1130B60C5CF08950F931F93CF93DF938C01FC019E
S1130B70618184E09EE00E942C10E091040EF091CB
S1130B80050E0190F081E02D68EA84E09EE019955D
S1130B9084E09EE00E94481043E0F801618184E013
S1130BA09EE00E94291084E09EE00E94790F039742
S1130BB0D4F384E09EE00E94810F082F84E09EE03D
S1130BC00E94810F182F84E09EE00E94810F482F1D
S1130BD0552747FD5095652F752FBA015527442792
S1130BE0402BD12FF0E0CF2FCE01A0E0B0E08A015E
S1130BF09B01082B192B2A2B3B2BC901B801DF9130
S1130C00CF911F910F910895ADDF0E944F1120E005
S1130C1030E040E859E30C9407120895CF93DF9332
S1130C20EC01698184E09EE00E942C10E091040EA6
S1130C30F091050E0190F081E02D6BEA84E09EE0D6
S1130C40199584E09EE00E94481042E0698184E0A6
S1130C509EE00E94291084E09EE00E94790F029792
S1130C60D4F384E09EE00E94810FC82F84E09EE0CC
S1130C700E94810F982F88278C2BDF91CF910895A4
S1130C80CDDFBC01882777FD8095982F0E944F11F6
S1130C9020E030E040EF53E40E94B41020E030E064
S1130CA04AE252E40C9450100895CF93DF93EC0180
S1130CB086E0E5E1F2E0DE01529601900D928A951C
S1130CC0E1F786E0EBE1F2E0DE011C9601900D9283
S1130CD08A95E1F784E0898F1CA21BA21DA2DF91F3
S1130CE0CF9108950F931F93CF93DF93EC01062FB9
S1130CF0142F6A8D84E09EE00E942C10602F84E003
S1130D009EE00E94D30F612F84E09EE00E94D30FE7
S1130D1084E09EE00E944810888FDF91CF911F915C
S1130D200F9108950F931F93CF93DF93EC01062F38
S1130D30142F6B8D84E09EE00E942C10602F84E0C1
S1130D409EE00E94D30F612F84E09EE00E94D30FA7
S1130D5084E09EE00E944810888FDF91CF911F911C
S1130D600F910895FC01218D233011F0603210F4AD
S1130D70D9CF0895B7CF0895CF93DF93EC01898D30
S1130D808330A9F440E061E2CE01ECDF47E560E2A4
S1130D90CE01E8DF44E664E2CE01E4DF40E265E24E
S1130DA0CE01E0DF40E066E2CE01DCDF1FC082302E
S1130DB049F448E063E2CE0195DF47E460E2CE0106
S1130DC091DF08C040E063E2CE018CDF47E260E2DD
S1130DD0CE0188DF4CE060E0CE01A4DF40E261E0B8
S1130DE0CE01A0DF40E062E0CE019CDFDF91CF9135
S1130DF00895CF93DF93C62FD42F84E09EE00E9402
S1130E002C106D2F84E09EE00E94D30F84E09EE0BE
S1130E100E944810811111C041E06C2F84E09EE0D3
S1130E200E94291084E09EE00E94790F892B41F0F2
S1130E3084E09EE00E94810F05C08FEF9FEF02C007
S1130E408FEF9FEFDF91CF9108950F931F93CF936F
S1130E50DF93EC01162F042F643009F4ADC0423047
S1130E6009F047C0ADC04FE06DE1CE01C2DF893467
S1130E70910509F4ABC0013041F04FE06EE1CE01C1
S1130E80B8DF8934910509F4A3C0143011F013308C
S1130E9068F50023A9F040E269E1CE01AADF0196DA
S1130EA069F0143009F099C04FE06EE1CE01A1DF82
S1130EB0CC9709F094C001E012E01BC0013099F016
S1130EC040E268E1CE0195DF019669F0143009F043
S1130ED089C04FE06EE1CE018CDF11E0CC9709F0C0
S1130EE010E000E006C0143009F460C0023009F4D8
S1130EF05FC0198F113071F108F442C01230C1F093
S1130F00133009F057C0013011F48DE101C08EE1B6
S1130F108B8F8A8F88E08E8F89E08D8F8AE088A3FB
S1130F208BE08F8F8CE08AA38DE089A381E064C07D
S1130F3089E18A8F8EE18B8F83E08D8F84E08E8FA1
S1130F4087E08F8F88E088A385E089A386E08AA361
S1130F5081E052C0013011F489E101C088E18A8F37
S1130F608EE18B8F83E08D8F84E08E8F87E08F8F6F
S1130F7088E088A385E089A386E08AA381E03CC059
S1130F80013011F489E101C088E18A8F8EE18B8FF1
S1130F9083E08D8F84E08E8F85E08F8F86E088A339
S1130FA087E089A388E08AA381E026C080E024C08A
S1130FB080E022C081E020C0442309F45ECF53CFF7
S1130FC08DEF860F823008F062CF0EC001E003C0BF
S1130FD000E001C001E013E089CF01E08ACF01E025
S1130FE010E087CF00E085CF4FE06DE1CE0101DF57
S1130FF08934910579F341CFDF91CF911F910F91FE
S11310000895CF93DF93DC0170E0FB01EE59FC4FB0
S1131010E4911496EC93149750E0FA01EE59FC4FC6
S1131020E4911596EC93159768557C4FFB018491D8
S113103090E0880F991F885F9B4FFC01C591D49164
S11310401796DC93CE931697FA01E855FC4F8491DA
S113105090E0880F991F82519C4FFC014591549157
S11310601B965C934E931A97FB016491E62FF0E074
S1131070EE0FFF1FEE5DFB4F8591949119969C93A3
S11310808E931897822F932F853FF1E09F0714F0DA
S113109084EF91E049E3489F9001499F300D11246A
S11310A0C9014C961D969C938E931C97DF91CF910A
S11310B008951F920F920FB60F9211240BB60F9240
S11310C02F933F934F935F936F937F938F939F934C
S11310D0AF93BF93EF93FF93E0913B0DF0913C0DE1
S11310E0309709F01995FF91EF91BF91AF919F91BE
S11310F08F917F916F915F914F913F912F910F90BD
S11311000BBE0F900FBE0F901F90189531E1FC019C
S11311103083319722E220833197A3E3A083319770
S113112060833197708331971082319710823197A1
S113113060E8608331971082319710823197108272
S1131140319762E06083319763E06083319764E0B4
S11311506083319765E06083319766E060833197FF
S113116067E06083319768E06083319769E060836A
S1131170319760E1608331973083319732E1308376
S1131180319733E13083319734E13083319735E15E
S11311903083319736E13083319737E130833197AB
S11311A038E13083319739E13083319730E230834D
S11311B0319731E2308331972083319723E22083C2
S11311C03197408331975083319726E220833197BA
S11311D027E22083319728E22083319729E2208374
S11311E0319720E32083319721E320838997089561
S11311F082E08093B0001092B20080E38093B30049
S1131200E0E7F0E080818260808383E08093B10036
S1131210A091940DB091950DCD91CDBFDD91DEBF20
S1131220FF91EF91DF91CF91BF91AF919F918F91FA
S11312307F916F915F914F913F912F911F910F91EA
S1131240FF90EF90DF90CF90BF90AF909F908F90E2
S11312507F906F905F904F903F902F901F900F90D2
S11312600CBE0F900BBE0F900FBE0F90089581E03F
S113127008950F920FB6F8940F920BB60F920CB616
S11312800F921F9211242F923F924F925F926F926E
S11312907F928F929F92AF92BF92CF92DF92EF9202
S11312A0FF920F931F932F933F934F935F936F93EB
S11312B07F938F939F93AF93BF93CF93DF93EF93DA
S11312C0FF93A091940DB091950D0DB60D920EB6AD
S11312D00D929CD3A091940DB091950DCD91CDBF5D
S11312E0DD91DEBFFF91EF91DF91CF91BF91AF917F
S11312F09F918F917F916F915F914F913F912F912A
S11313001F910F91FF90EF90DF90CF90BF90AF901F
S11313109F908F907F906F905F904F903F902F9011
S11313201F900F900CBE0F900BBE0F900FBE0F902E
S113133008950F920FB6F8940F920BB60F920CB655
S11313400F921F9211242F923F924F925F926F92AD
S11313507F928F929F92AF92BF92CF92DF92EF9241
S1131360FF920F931F932F933F934F935F936F932A
S11313707F938F939F93AF93BF93CF93DF93EF9319
S1131380FF93A091940DB091950D0DB60D920EB6EC
S11313900D92B0D181113AD3A091940DB091950DD5
S11313A0CD91CDBFDD91DEBFFF91EF91DF91CF9164
S11313B0BF91AF919F918F917F916F915F914F9169
S11313C03F912F911F910F91FF90EF90DF90CF905D
S11313D0BF90AF909F908F907F906F905F904F9051
S11313E03F902F901F900F900CBE0F900BBE0F904C
S11313F00FBE0F9008959DDF1895E0915C0DF0915C
S11314005D0D8081811107C08FEF9FEF90931402CF
S1131410809313020895E0915C0DF0915D0D0580B9
S1131420F681E02D0680F781E02D828193819093EF
S11314301402809313020895CF93DF93EC01E0919B
S1131440940DF091950D938382838091440D909136
S1131450450DC817D90760F46091940D7091950DEE
S113146080915A0D90915B0D6E5F7F4FCBDA16C061
S11314706091940D7091950D80915C0D90915D0D2E
S11314806E5F7F4FBFDA8091130290911402C817E8
S1131490D90720F4D0931402C0931302DF91CF91A3
S11314A008954F925F926F927F928F929F92AF9224
S11314B0BF92CF92DF92EF92FF920F931F93CF933D
S11314C0DF934C015B012A01390181E290E0C3D82A
S11314D0EC01009709F4CDC0C114D10409F0B2C0E5
S11314E0C201B9D8988F8F8B892B09F0ADC0CE017A
S11314F0E7D8BFC0CF013191DA013D93AD01DC01E2
S11315008C91882311F02150A9F718A2102F0430D0
S113151008F013E01E8B5E01B2E0AB0EB11CC501F6
S11315204CDACE010C9649DAD987C88784E090E07A
S1131530811B91099D878C87DB8BCA8BA301B40126
S1131540C601E4DD99838883E114F10419F0F701FD
S1131550D183C0830FB6F8940F928091460D8F5FAC
S11315608093460D8091940D9091950D892B69F58A
S1131570D093950DC093940D8091460D8130A1F5C3
S113158080E79DE00CDA89E79DE009DA82E89DE0D6
S113159006DA8BE89DE003DA87E69DE000DA8EE563
S11315A09DE0FDD981E59DE0FAD988E49DE0F7D975
S11315B087E69DE090935D0D80935C0D8EE59DE044
S11315C090935B0D80935A0D0FC08091420D811151
S11315D00BC0E091940DF091950D8689081720F0C9
S11315E0D093950DC093940D80913E0D8F5F8093A1
S11315F03E0D8E899091430D981710F48093430DFE
S113160090E09C01220F331F220F331F220F331F40
S1131610820F931FB5018059924FD3D90F900FBEFB
S11316208091420D882351F0E091940DF091950D35
S11316308689801728F41DDE81E01CC081E01AC071
S113164081E018C0D88ECF8AF1E04F1A5108CF88B4
S1131650D88CC40CD51CD5018C91898F8C9188238E
S113166009F453CFAE01465E5F4FF501319627E092
S113167041CF8FEFDF91CF911F910F91FF90EF90AA
S1131680DF90CF90BF90AF909F908F907F906F909E
S11316905F904F900895AF92BF92CF92DF92EF92F6
S11316A0FF920F93A12CB12CC12CD12CE12CF12C45
S11316B000E020E030E045E550E066E872E08EECC2
S11316C09CE0EFDE813041F4F8948093420D109257
S11316D0450D1092440D8CDD0F91FF90EF90DF903B
S11316E0CF90BF90AF90089580913D0D8F5F809310
S11316F03D0D0895CF92DF92EF92FF920F931F93C7
S1131700CF93DF9380913D0D811196C08091440D5C
S11317109091450D01969093450D8093440DE09072
S1131720440DF090450DE114F104B1F480915C0D89
S113173090915D0D20915A0D30915B0D30935D0DAC
S113174020935C0D90935B0D80935A0D80913F0D17
S11317508F5F80933F0D51DE8091130290911402AC
S1131760E816F90608F451C0D12CCC24C39401C066
S1131770DC2CE0915C0DF0915D0D8081811107C03E
S11317808FEF9FEF90931402809313023FC0E09178
S11317905C0DF0915D0D0580F681E02DC681D78149
S11317A02A813B81E216F30628F430931402209335
S11317B013022CC08E010E5F1F4FC80154D98C89AF
S11317C09D89892B19F0CE010C964DD92E898091D3
S11317D0430D821710F42093430D30E0C901880FA4
S11317E0991F880F991F880F991F820F931FB801A3
S11317F08059924FE6D8E091940DF091950D9E8911
S11318008689981708F0B4CFB4CFD12CE091940D09
S1131810F091950D868990E0FC01EE0FFF1FEE0F0D
S1131820FF1FEE0FFF1F8E0F9F1FFC01E059F24FA9
S11318308081823040F409C08091410D8F5F809394
S1131840410DD12C02C0DD24D3948091400D882316
S113185011F0DD24D3948D2DDF91CF911F910F9141
S1131860FF90EF90DF90CF900895DF92EF92FF9278
S11318700F931F93CF93DF930FB6F8940F92809139
S11318803D0D815080933D0D80913D0D81115CC0D3
S11318908091460D882309F459C00F2EF1E5EF2EEF
S11318A0FDE0FF2EF02DDD24D3942DC0E091560DE4
S11318B0F091570DC681D781CE010C96D4D88E01F4
S11318C00E5F1F4FC801CFD88E899091430D981792
S11318D010F48093430D90E09C01220F331F220FDC
S11318E0331F220F331F820F931FB8018059924F69
S11318F068D8E091940DF091950D9E89868998178A
S113190010F0D092400DF70180818111CFCF8091EA
S1131910410D882391F08091410D882371F0C1E03D
S1131920E9DE8111C093400D8091410D8150809377
S1131930410D8091410D8111F3CF8091400D813093
S113194039F497DC81E005C080E003C080E001C089
S113195080E00F900FBEDF91CF911F910F91FF9008
S1131960EF90DF900895CF93DF93EC01009791F00F
S1131970BBDE8091440D9091450DC80FD91F809115
S1131980940D9091950D02966ED8CE0155DD6DDFC4
S1131990811101C06EDCDF91CF9108950F2EF0E725
S11319A0EF2EFDE0FF2EF02DC8E4DDE025C09CDE27
S11319B018815BDF112301F10FB6F8940F92E091C7
S11319C04D0DF0914E0D06811781C80102964BD83A
S11319D08091460D81508093460D8091470D815032
S11319E08093470D0F900FBEF8018789908D0E9458
S11319F06003C8010E9460038091470D8111D7CF15
S1131A00F70180818230C0F334DCF6CF80913D0D44
S1131A10882321F081E08093400D08951092400DB9
S1131A208091430D90E0FC01EE0FFF1FEE0FFF1FAE
S1131A30EE0FFF1F8E0F9F1FFC01E059F24F8081B4
S1131A40811117C08091430D81508093430D809183
S1131A50430D90E0FC01EE0FFF1FEE0FFF1FEE0F92
S1131A60FF1F8E0F9F1FFC01E059F24F80818823D6
S1131A7049F3E091430DF0E0CF01880F991F880FDF
S1131A80991F880F991FE80FF91FE059F24FA181A0
S1131A90B28112960D90BC91A02DB283A183CF0187
S1131AA00396A817B90731F412968D919C91139758
S1131AB0928381830180F281E02D868197819093C6
S1131AC0950D8093940D08951092030E81E08093F8
S1131AD0010E1092000E61E084E10E94741761E02F
S1131AE085E10E947417E9EBF0E080818E7F8083AA
S1131AF080818D7F808388E48093B80085E480931F
S1131B00BC000895413208F045C09091030E911134
S1131B10FCCF91E09093030E2093010E2FEF2093BE
S1131B20960D1092DB0D240F2093DA0D9093020E84
S1131B309091020E880F892B8093020E8091000EE3
S1131B40813051F41092000E8091020E8093BB00FC
S1131B5085EC8093BC0003C085EE8093BC0080912B
S1131B60030E8130E1F38091DB0D841710F4409172
S1131B70DB0D442389F0ECEDFDE0A62FB72F2FEF0A
S1131B80240F30E02352324F91919D93E217F307D3
S1131B90D9F704C080E00895842F0895842F089510
S1131BA00F93413208F050C09091030E9111FCCF75
S1131BB092E09093030E0093010E9FEF9093960D85
S1131BC01092DB0D4093DA0D442369F0FB01ACED78
S1131BD0BDE06F5F7F4F4150640F711D91919D93E4
S1131BE0E617F707D9F71092020E9091020E880FAC
S1131BF0892B8093020E8091000E813051F4109253
S1131C00000E8091020E8093BB0085EC8093BC0093
S1131C1003C085EE8093BC00222341F08091030E23
S1131C20823021F48091030E8230E1F38091960D8D
S1131C308F3F61F08091960D803251F08091960D26
S1131C40803341F483E007C081E005C080E003C035
S1131C5082E001C084E00F9108956132A8F42091DC
S1131C60030E243099F46093B80D662389F0FC01C7
S1131C70AAEBBDE001966150860F911D21912D9331
S1131C80E817F907D9F706C081E0089582E00895BE
S1131C9080E0089580E0089585ED8093BC00ECEB2E
S1131CA0F0E0808184FDFDCF1092030E089585EC51
S1131CB08093BC001092030E08951F920F920FB6EA
S1131CC00F9211240BB60F922F933F934F935F9370
S1131CD06F937F938F939F93AF93BF93EF93FF93F0
S1131CE08091B900887F90E0893C910508F0EEC0AE
S1131CF0FC01EE58FF4F0C94F0178091020E809374
S1131D00BB0085EC8093BC00E1C09091DB0D809119
S1131D10DA0D981780F4E091DB0D81E08E0F80934B
S1131D20DB0DF0E0E452F24F80818093BB0085EC40
S1131D308093BC00CBC08091010E882311F0ACDFEE
S1131D40C5C081E08093000E84EA8093BC001092A9
S1131D50030EBCC080E28093960D9EDFB7C080E383
S1131D608093960D99DFB2C088E38093960D9FDF30
S1131D70ADC0E091DB0D81E08E0F8093DB0D80918F
S1131D80BB00F0E0E452F24F80839091DB0D809130
S1131D90DA0D981720F485EC8093BC0097C085E891
S1131DA08093BC0093C0E091DB0D81E08E0F8093A3
S1131DB0DB0D8091BB00F0E0E452F24F8083809110
S1131DC0010E882311F068DF81C081E08093000E4A
S1131DD084EA8093BC001092030E78C05DDF76C065
S1131DE083E08093030E1092970D85EC8093BC00E2
S1131DF06DC08091970D803280F4E091970D81E061
S1131E008E0F8093970D8091BB00F0E0E856F24F5F
S1131E10808385EC8093BC0059C085E88093BC0026
S1131E2055C08091970D803230F4E091970DF0E029
S1131E30E856F24F108230DF6091970D70E0E09128
S1131E40FC0DF091FD0D88E99DE019951092970D18
S1131E502EDF3CC085E88093BC0038C084E08093CA
S1131E60030E1092B90D1092B80DE091FE0DF09191
S1131E70FF0D19958091B80D811105C081E0809303
S1131E80B80D1092BA0DE091B90D81E08E0F8093D8
S1131E90B90DF0E0E654F24F80818093BB0090913D
S1131EA0B90D8091B80D981720F485EC8093BC008F
S1131EB00DC085E88093BC0009C085EC8093BC000C
S1131EC01092030E03C01092960DE6DEFF91EF917F
S1131ED0BF91AF919F918F917F916F915F914F913E
S1131EE03F912F910F900BBE0F900FBE0F901F903C
S1131EF018958091340E90E02091350E821B910943
S1131F0008952091350E8091340E281750F4E22F55
S1131F10F0E0EA5CF14F808190E02F5F2093350E72
S1131F2008958FEF9FEF0895E091350E8091340E60
S1131F30E81730F4F0E0EA5CF14F808190E0089516
S1131F408FEF9FEF08950895CF92DF92EF92FF9263
S1131F500F931F93CF93DF938C017B016A018091D0
S1131F60100E882399F04115510599F0EB01E40E08
S1131F70F51E6991D801ED91FC910190F081E02D5D
S1131F80C8011995CE15DF05A1F703C0642FC70159
S1131F9064DEC601DF91CF911F910F91FF90EF9006
S1131FA0DF90CF900895CF93DF931F92CDB7DEB724
S1131FB069832091100E2223E1F02091110E20322A
S1131FC040F021E030E0FC013383228380E090E0A4
S1131FD016C08091120EE82FF0E0ED5EF14F99816A
S1131FE090838F5F8093120E8093110E81E090E0B6
S1131FF006C061E0CE01019630DE81E090E00F90F2
S1132000DF91CF910895FC011382128248EE53E0D0
S113201060E070E044835583668377838FE892E0C1
S11320209183808308951092350E1092340E10928D
S1132030120E1092110E48CD0895862F413208F0E9
S113204040E266E37EE05EDD1092350E8093340E4E
S1132050089521E0F2CF089581E08093100E6093FB
S1132060330E1092120E1092110E08950F93062F34
S113207021E04091110E63E17EE08091330E90DD0A
S11320801092120E1092110E1092100E0F910895CC
S113209061E0ECCF089584E09EE0B5CF08955058F8
S11320A0BB27AA270ED072C163D130F068D120F0CB
S11320B031F49F3F11F41EF433C10EF4E095E7FBB5
S11320C029C1E92F74D180F3BA1762077307840713
S11320D0950718F071F49EF58CC10EF4E0950B2E63
S11320E0BA2FA02D0B01B90190010C01CA01A00166
S11320F01124FF27591B99F0593F50F4503E68F1C1
S11321001A16F040A22F232F342F4427585FF3CF01
S1132110469537952795A795F0405395C9F77EF4D2
S11321201F16BA0B620B730B840BBAF09150A1F01B
S1132130FF0FBB1F661F771F881FC2F70EC0BA0FA1
S1132140621F731F841F48F4879577956795B79529
S1132150F7959E3F08F0B3CF9395880F08F0992721
S1132160EE0F9795879508950CD010C108D140F0D3
S1132170FFD030F021F45F3F19F0CCC051113AC1C7
S1132180CFC015D198F39923C9F35523B1F3951B07
S1132190550BBB27AA2762177307840738F09F5F84
S11321A05F4F220F331F441FAA1FA9F333D00E2EF3
S11321B03AF0E0E830D091505040E695001CCAF760
S11321C029D0FE2F27D0660F771F881FBB1F261725
S11321D037074807AB07B0E809F0BB0B802DBF01F8
S11321E0FF2793585F4F2AF09E3F510568F092C035
S11321F001C15F3FECF3983EDCF3869577956795D4
S1132200B795F7959F5FC9F7880F911D96958795A8
S113221097F90895E1E0660F771F881FBB1F6217C7
S113222073078407BA0720F0621B730B840BBA0B85
S1132230EE1F88F7E095089504D06894B111DAC0D0
S11322400895BDD088F09F5790F0B92F9927B751C2
S1132250A0F0D1F0660F771F881F991F1AF0BA9566
S1132260C9F712C0B13081F0C4D0B1E00895C1C043
S1132270672F782F8827B85F39F0B93FCCF386955C
S113228077956795B395D9F73EF4909580957095B9
S113229061957F4F8F4F9F4F0895E89409C097FB36
S11322A03EF490958095709561957F4F8F4F9F4F29
S11322B09923A9F0F92F96E9BB279395F69587956D
S11322C077956795B795F111F8CFFAF4BB0F11F430
S11322D060FF1BC06F5F7F4F8F4F9F4F16C08823D7
S11322E011F096E911C0772321F09EE8872F762F0D
S11322F005C0662371F096E8862F70E060E02AF04E
S11323009A95660F771F881FDAF7880F9695879539
S113231097F9089597F99F6780E870E060E0089561
S11323209FEF80EC0895DF93CF931F930F93FF9259
S1132330EF92DF927B018C01689405C0DA2EEF01E5
S113234072D0FE01E894A59125913591459155915E
S1132350AEF3EF01B6DEFE019701A801DA9479F736
S1132360DF90EF90FF900F911F91CF91DF9108952F
S113237000240A9416161706180609060895002460
S11323800A9412161306140605060895092E0394DA
S1132390000C11F4882352F0BB0F40F4BF2B11F44E
S11323A060FF04C06F5F7F4F8F4F9F4F089557FDAD
S11323B09058440F551F59F05F3F71F04795880FAF
S11323C097FB991F61F09F3F79F087950895121646
S11323D013061406551FF2CF4695F1DF08C01616F2
S11323E017061806991FF1CF8695710561050894A3
S11323F00895E894BB2766277727CB0197F90895BA
S11324009B01AC0160E070E080E89FE3ADCE0BD0AF
S1132410BDCFAEDF28F0B3DF18F0952309F07ACFF3
S11324207FCF1124E7CFC3DFA0F3959FD1F3950F9E
S113243050E0551F629FF001729FBB27F00DB11D44
S1132440639FAA27F00DB11DAA1F649F6627B00DD4
S1132450A11D661F829F2227B00DA11D621F739FBD
S1132460B00DA11D621F839FA00D611D221F749FCB
S11324703327A00D611D231F849F600D211D822F12
S1132480762F6A2F11249F5750408AF0E1F0882359
S11324904AF0EE0FFF1FBB1F661F771F881F915066
S11324A05040A9F79E3F510570F034CFA3CF5F3F52
S11324B0ECF3983EDCF3869577956795B795F79599
S11324C0E7959F5FC1F7FE2B880F911D9695879521
S11324D097F90895FA01EE0FFF1F30962105310593
S11324E099F16115710561F48038BFE39B0749F1E7
S11324F068949038810561F08038BFEF9B0741F004
S1132500992342F5FF3FE1053105210511F1E894D6
S11325100894E795D901AA2329F4AB2FBE2FF85FBD
S1132520D0F310C0FF5F70F4A695E0F7F73950F0D0
S113253019F0FF3A38F49F779F930CD00F9007FC63
S1132540905808953EF0ECCE60E070E080E89FE3A0
S113255008954FE79F775F934F933F932F9380D0D6
S11325602F913F914F915F9152DF05C019F40EF006
S1132570D1CE3FCFD5CE23DFC8F39638C0F707F8C6
S11325800F92E8942BE33AEA48EB5FE74EDF0F92B1
S11325900F920F924DB75EB70F92A2D0E6E7F2E02A
S11325A0C2DE4F915F91EF91FF91E595EE1FFF1F02
S11325B049F0FE57E0684427EE0F441FFA95E1F70F
S11325C04195550B14D00F9007FE1ACF08959F3FE5
S11325D031F0915020F4879577956795B795880FDA
S11325E0911D9695879597F9089594CEF0CFE7DEDF
S11325F0E8F39923D9F3940F511DBBF39150504044
S113260094F059F0882332F0660F771F881F915099
S11326105040C1F79E3F510544F7880F911D969590
S1132620879597F908955F3FACF0983E9CF0BB27DF
S1132630869577956795B79508F4B1609395C1F73A
S1132640BB0F58F711F460FFE8CF6F5F7F4F8F4FD8
S11326509F4FE3CFCFCE0EF0BACF62CE68945ACE5E
S1132660AEDEC8F39923D1F3C6F3DF93CF931F9360
S11326700F93FF92C92FDD2788232AF02197660F35
S1132680771F881FDAF720E030E040E85FEB9FE334
S1132690883920F0803E30F021968F7701DDEEE915
S11326A0F2E003C0FDDCEBECF2E03DDE8B01BE01A9
S11326B0EC01FB2E6F5771097595771F880B990BE9
S11326C0EEDD28E132E741E35FE3ADDEAF2D9801B3
S11326D0AE01FF900F911F91CF91DF91F2DC56CEA6
S11326E0FA01DC01AA0FBB1F9B01AC01BF5728F400
S11326F022273327442750781FC0B75188F4AB2FC3
S11327000024469537952795011CA395D2F3002004
S113271069F0220F331F441FB395DAF30DD0BFCCF9
S113272061307105A0E88A07B94630F49B01AC0119
S11327306627772788279078309621F02083318385
S1132740428353830895FC01818D228D90E0805C47
S11327509F4F821B91098F7399270895FC01918DD6
S1132760828D981731F0828DE80FF11D858D90E0F0
S113277008958FEF9FEF0895FC01918D828D981736
S113278061F0828DDF01A80FB11D5D968C91928D51
S11327909F5F9F73928F90E008958FEF9FEF08954E
S11327A0FC01848DDF01A80FB11DA35ABF4F2C91EA
S11327B0848D90E001968F739078848FA689B78971
S11327C02C93A089B1898C9180648C93938D848D92
S11327D0981306C00288F389E02D80818F7D808361
S11327E00895CF93DF93EC01888D81110AC01AC03C
S11327F00FB607FC08C0808185FF05C00DC0CE015F
S1132800CFDFEA89FB89808185FDF2CFA889B98968
S11328108C9186FFEDCF06C0A889B9898C9185FF7C
S1132820F2CFEDCFDF91CF9108950F931F93CF9304
S1132830DF93EC01162F9B8D8C8D981323C0E889B0
S1132840F989808185FD25C01DC00FB607FC07C02E
S1132850E889F989808185FF02C0CE01A1DF9C8DC2
S1132860091799F38B8DFE01E80FF11DE35AFF4F11
S113287010830B8FEA89FB8980818062808381E0E9
S1132880888F0FC08B8D90E001968F739078082FFE
S1132890E6CFEE89FF896083E889F98980818064C5
S11328A0808381E090E0DF91CF911F910F91089593
S11328B0CF92DF92EF92FF921F93CF93DF93EC01BD
S11328C06A017B01122FE889F98982E0808341152E
S11328D081EE580761057105A9F060E079E08DE3A8
S11328E090E0A70196015AD3BA01A90141505109B8
S11328F0610971097695679557954795411580E16A
S11329005807A0F0E889F989108260E874E88EE13C
S113291090E0A701960142D3BA01A901415051099F
S1132920610971097695679557954795EC85FD85FD
S11329305083EE85FF854083188EEC89FD891083D2
S1132940EA89FB89808180618083EA89FB898081AF
S113295088608083EA89FB89808180688083EA8932
S1132960FB8980818F7D8083DF91CF911F91FF90C0
S1132970EF90DF90CF9008951F920F920FB60F92B1
S113298011240BB60F922F938F939F93AF93BF9302
S1132990EF93FF93E091660EF091670E808182FDC4
S11329A017C0E0916C0EF0916D0E208180916F0E36
S11329B08F5F8F739091700E891779F0EFE6FEE0C8
S11329C0A081B0E0AA5AB14F5D962C93808305C0D4
S11329D0E0916C0EF0916D0E8081FF91EF91BF91AB
S11329E0AF919F918F912F910F900BBE0F900FBEBF
S11329F00F901F9018951F920F920FB60F921124EB
S1132A000BB60F922F933F934F935F936F937F93E4
S1132A108F939F93AF93BF93EF93FF9386E59EE0CD
S1132A20BFDEFF91EF91BF91AF919F918F917F9105
S1132A306F915F914F913F912F910F900BBE0F902B
S1132A400FBE0F901F9018951092590E1092580EA9
S1132A5088EE93E0A0E0B0E080935A0E90935B0E72
S1132A60A0935C0EB0935D0E8FE992E09093570EA5
S1132A708093560E85EC90E09093630E8093620EE3
S1132A8084EC90E09093650E8093640E80EC90E06B
S1132A909093670E8093660E81EC90E09093690E9C
S1132AA08093680E82EC90E090936B0E80936A0E94
S1132AB086EC90E090936D0E80936C0E10926F0EE6
S1132AC01092700E1092710E1092720E0895CF92A1
S1132AD0DF92EF92FF920F931F93CF93DF936C01DA
S1132AE041155105B1F0062F172FEA01E12CF12C05
S1132AF0D8016D918D01D601ED91FC910190F08189
S1132B00E02DC6011995E80EF91E2197209781F74B
S1132B1002C0E12CF12CC701DF91CF911F910F91DD
S1132B20FF90EF90DF90CF9008956115710581F0CB
S1132B30FB0101900020E9F73197AF01461B570BC9
S1132B40DC01ED91FC910280F381E02D199508954B
S1132B5080E090E00895DC01ED91FC910190F0811A
S1132B60E02D199508950F931F93CF93DF93EC01F4
S1132B706DE0F1DF8C016AE0CE01EDDF800F911F83
S1132B80DF91CF911F910F9108950F931F93CF93CE
S1132B90DF93EC01CADF8C01CE01E5DF800F911FCA
S1132BA0DF91CF911F910F9108951F920F920FB64D
S1132BB00F9211242F933F938F939F93AF93BF93BF
S1132BC08091F40E9091F50EA091F60EB091F70E4F
S1132BD03091F30E23E0230F2D3720F40196A11D2D
S1132BE0B11D05C026E8230F0296A11DB11D209337
S1132BF0F30E8093F40E9093F50EA093F60EB0931B
S1132C00F70E8091F80E9091F90EA091FA0EB09102
S1132C10FB0E0196A11DB11D8093F80E9093F90E41
S1132C20A093FA0EB093FB0EBF91AF919F918F9139
S1132C303F912F910F900FBE0F901F9018953FB7A3
S1132C40F8948091F80E9091F90EA091FA0EB0913B
S1132C50FB0E26B5A89B05C02F3F19F00196A11DB8
S1132C60B11D3FBFBA2FA92F982F8827820F911D1E
S1132C70A11DB11DBC01CD01660F771F881F991FCF
S1132C80660F771F881F991F0895CF92DF92EF92E6
S1132C90FF92CF93DF936B017C01D1DFEB01C11471
S1132CA0D104E104F10499F078D1C9DF6C1B7D0BE8
S1132CB0683E734038F081E0C81AD108E108F10891
S1132CC0C851DC4FC114D104E104F10469F7DF9168
S1132CD0CF91FF90EF90DF90CF900895789484B5D2
S1132CE0826084BD84B5816084BD85B5826085BD04
S1132CF085B5816085BDEEE6F0E0808181608083EA
S1132D00E1E8F0E0108280818260808380818160CC
S1132D108083E0E8F0E0808181608083E1EBF0E093
S1132D20808184608083E0EBF0E080818160808337
S1132D30E1E9F0E08081826080838081816080832A
S1132D40E0E9F0E0808181608083E1EAF0E0808165
S1132D5082608083808181608083E0EAF0E080810A
S1132D6081608083E1E2F1E0808182608083808100
S1132D7081608083E0E2F1E0808181608083EAE722
S1132D80F0E08081846080838081826080838081A0
S1132D90816080838081806880831092C10008955F
S1132DA090E0FC013197E231F10508F05EC0E4588F
S1132DB0FE4F16C1E0E8F0E080818F7780830895AC
S1132DC0E0E8F0E080818F7D80830895E0E8F0E022
S1132DD08081877F8083089584B58F7784BD08952B
S1132DE084B58F7D84BD0895E0EBF0E080818F771A
S1132DF080830895E0EBF0E080818F7D80830895E7
S1132E00E0E9F0E080818F7780830895E0E9F0E0E5
S1132E1080818F7D80830895E0E9F0E08081877F61
S1132E2080830895E0EAF0E080818F7780830895BD
S1132E30E0EAF0E080818F7D80830895E0EAF0E0AD
S1132E408081877F80830895E0E2F1E080818F773D
S1132E5080830895E0E2F1E080818F7D808308958E
S1132E60E0E2F1E08081877F80830895CF93DF9350
S1132E7090E0FC01EE59FC4F2491FC01E855FC4F15
S1132E808491882371F190E0880F991FFC01EE5D15
S1132E90FB4FA591B491885F9B4FFC01C591D491E0
S1132EA061110BC08FB7F8949C91209592239C9349
S1132EB0E8812E2328838FBF14C0623061F48FB75A
S1132EC0F8943C91922F909593239C93E8812E2B18
S1132ED028838FBF06C08FB7F894EC912E2B2C93C8
S1132EE08FBFDF91CF9108951F93CF93DF93C62FA8
S1132EF0282F30E0F901E45EFC4F8491F901EE598A
S1132F00FC4F1491F901E855FC4FD491DD23C1F035
S1132F10811146DF2D2F30E0F901EE0FFF1FE85F2E
S1132F20FB4FA591B4918FB7F894C11105C0EC91F2
S1132F3010951E231C9303C0EC911E2B1C938FBF72
S1132F40DF91CF911F910895CF93DF93282F30E025
S1132F50F901E45EFC4F8491F901EE59FC4FD491E0
S1132F60F901E855FC4FC491CC2391F0811118DF8D
S1132F702C2F30E0F901EE0FFF1FE251FC4FA59119
S1132F80B491EC91DE2381E090E021F480E002C072
S1132F9080E090E0DF91CF9108950895A1E21A2E88
S1132FA0AA1BBB1BFD010DC0AA1FBB1FEE1FFF1FE9
S1132FB0A217B307E407F50720F0A21BB30BE40B39
S1132FC0F50B661F771F881F991F1A9469F7609580
S1132FD07095809590959B01AC01BD01CF0108953A
S1132FE0EE0FFF1F0590F491E02D19940790F691D0
S1132FF0E02D19940F931F93CF93DF93CDB7DEB7D2
S11330002E970FB6F894DEBF0FBECDBF8C0186E0BD
S11330108C831A8309838FEF9FE79E838D83CE0170
S1133020019610D0EF81F885E00FF11F10822E96E3
S11330300FB6F894DEBF0FBECDBFDF91CF911F91C5
S11330400F9108952F923F924F925F926F927F92C9
S11330508F929F92AF92BF92CF92DF92EF92FF92A4
S11330600F931F93CF93DF93CDB7DEB72C970FB693
S1133070F894DEBF0FBECDBF7C016B018A01FC0159
S113308017821682838181FFB0C1CE0101964C0163
S1133090F7019381F60193FD859193FF81916F016F
S11330A0882309F49EC1853239F493FD859193FFF9
S11330B081916F01853221F4B70190E0C7D1E8CF47
S11330C0512C312C20E02032A0F48B3269F030F402
S11330D0803259F0833269F420612CC08D3239F08A
S11330E0803339F4216026C02260246023C0286024
S11330F021C027FD27C030ED380F3A3078F426FF81
S113310006C0FAE05F9E300D1124532E13C08AE0EE
S1133110389E300D1124332E20620CC08E3221F4DF
S113312026FD5FC1206406C08C3611F4206802C0FD
S1133130883641F4F60193FD859193FF81916F01E7
S11331408111C1CF982F9F7D9554933028F40C5F43
S11331501F4FFFE3F9830DC0833631F0833771F0DD
S1133160833509F057C021C0F801808189830E5F3F
S11331701F4F44244394512C540114C03801F2E0ED
S11331806F0E711CF801A080B18026FF03C0652D6D
S113319070E002C06FEF7FEFC5012C874CD12C018A
S11331A083012C852F77222E16C03801F2E06F0E92
S11331B0711CF801A080B18026FF03C0652D70E06A
S11331C002C06FEF7FEFC5012C872AD12C012C851B
S11331D02068222E830123FC19C0832D90E0481619
S11331E05906A0F4B70180E290E030D13A94F5CFCB
S11331F0F50127FC859127FE81915F01B70190E0DD
S113320025D131103A94F1E04F1A51084114510478
S113321079F7DEC0843611F0893631F5F80127FFDD
S113322007C060817181828193810C5F1F4F08C048
S113323060817181882777FD8095982F0E5F1F4FDD
S11332402F76B22E97FF09C0909580957095619561
S11332507F4F8F4F9F4F2068B22E2AE030E0A401A9
S113326027D1A82EA81843C0853729F42F7EB22E63
S11332702AE030E025C0F22FF97FBF2E8F36C1F04F
S113328018F4883579F0ADC0803719F0883721F00B
S1133290A8C02F2F2061B22EB4FE0DC08B2D8460E8
S11332A0B82E09C024FF0AC09F2F9660B92E06C00D
S11332B028E030E005C020E130E002C020E132E047
S11332C0F801B7FE07C060817181828193810C5F30
S11332D01F4F06C06081718180E090E00E5F1F4F38
S11332E0A401E6D0A82EA818FB2DFF77BF2EB6FEAA
S11332F00BC02B2D2E7FA51450F4B4FE0AC0B2FCD3
S113330008C02B2D2E7E05C07A2C2B2D03C07A2CC1
S113331001C0752C24FF0DC0FE01EA0DF11D808152
S1133320803311F4297E09C022FF06C0739473947C
S113333004C0822F867809F0739423FD12C020FF05
S113334006C05A2C731418F4530C5718732C7314A6
S113335060F4B70180E290E02C8778D073942C85D8
S1133360F6CF731410F4371801C0312C24FF11C0A8
S1133370B70180E390E02C8769D02C8522FF16C02A
S113338021FF03C088E590E002C088E790E0B70120
S11333900CC0822F867851F021FD02C080E201C06A
S11333A08BE227FD8DE2B70190E050D0A51430F4F4
S11333B0B70180E390E04AD05A94F8CFAA94F4017C
S11333C0EA0DF11D8081B70190E040D0A110F6CF45
S11333D0332009F45DCEB70180E290E037D03A940F
S11333E0F7CFF7018681978102C08FEF9FEF2C966C
S11333F00FB6F894DEBF0FBECDBFDF91CF911F9102
S11334000F91FF90EF90DF90CF90BF90AF909F907F
S11334108F907F906F905F904F903F902F90089582
S1133420FC010590615070400110D8F7809590958B
S11334308E0F9F1F0895FC01615070400190011090
S1133440D8F7809590958E0F9F1F08950F931F9323
S1133450CF93DF93182F092FEB018B8181FD03C0DC
S11334608FEF9FEF20C082FF10C04E815F812C81BF
S11334703D81421753077CF4E881F9819F012F5F56
S11334803F4F39832883108306C0E885F985812F4F
S11334901995892B29F72E813F812F5F3F4F3F8359
S11334A02E83812F902FDF91CF911F910F9108953B
S11334B0FA01AA27283051F1203181F1E8946F9361
S11334C06E7F6E5F7F4F8F4F9F4FAF4FB1E03ED007
S11334D0B4E03CD0670F781F891F9A1FA11D680FA5
S11334E0791F8A1F911DA11D6A0F711D811D911DD8
S11334F0A11D20D009F468943F912AE0269F11244D
S11335003019305D3193DEF6CF010895462F4770B0
S1133510405D4193B3E00FD0C9F7F6CF462F4F700B
S1133520405D4A3318F0495D31FD4052419302D069
S1133530A9F7EACFB4E0A69597958795779567950F
S1133540BA95C9F700976105710508959B01AC010F
S11335500A2E06945795479537952795BA95C9F736
S1133560620F731F841F951FA01D0895F894FFCF49
S113357024232221201F1E31323334353637383983
S11335802A3023FFFF018001800180FF7FFF7FFF3E
S11335907F31005461736B204779726F002564207A
S11335A069732070726573737572652C20256420AD
S11335B0697320616C7469747564652C20256420BA
S11335C069732074656D7065726174757265002528
S11335D06300582069732025642C205920697320C6
S11335E025642C205A206973202564000000000003
S11335F066036B03700349444C450000000000D38C
S11336000FA40F790F810F940FA30F000000001572
S10F3610146715A313BC13AE13F11300D0
S9030000FC
