:10000000DFC100000DC200000BC2000009C20000E9
:1000100007C2000005C2000003C2000001C20000C8
:10002000FFC10000FDC10000FBC10000F9C10000DC
:10003000F7C100000C94ED08F3C10000F1C100000D
:10004000EFC10000EDC10000EBC10000E9C10000FC
:10005000E7C10000E5C10000E3C100000C941212EA
:10006000DFC100000C9457100C949610D9C1000009
:10007000D7C10000D5C10000D3C10000D1C100002C
:10008000CFC10000CDC10000CBC10000C9C100003C
:10009000C7C10000C5C10000C3C100000C944D0DD4
:1000A000BFC10000BDC10000BBC10000B9C100005C
:1000B000B7C10000F0C60000B3C10000B1C100002C
:1000C000AFC10000ADC10000ABC10000A9C100007C
:1000D000A7C10000A5C10000A3C10000A1C100008C
:1000E0009FC10000520E550E550E550E550E550E61
:1000F000550E550E6C0D550E550E550E550E550ED2
:10010000550E550E6C0D550E550E550E550E550EC1
:10011000550E550E740D550E550E550E550E550EA9
:10012000550E550E990D550E550E550E550E550E74
:10013000550E550E740D550E550E550E550E550E89
:10014000550E550E9E0D550E550E550E550E550E4F
:10015000550E550EA30D550E550E550E550E550E3A
:10016000550E550EB40D550E550E550E550E550E19
:10017000550E550EDD0D550E550E550E550E550EE0
:10018000550E550EA80D550E550E550E550E550E05
:10019000550E550EC20D550E550E550E550E550EDB
:1001A000550E550EDF0D550E550E550E550E550EAE
:1001B000550E550EDF0D550E550E550E550E550E9E
:1001C000550E550EDF0D550E550E550E550E550E8E
:1001D000550E550EDF0D550E550E550E550E550E7E
:1001E000550E550EE80D550E550E550E550E550E65
:1001F000550E550E190E550E550E550E550E550E23
:10020000550E550EE80D550E550E550E550E550E44
:10021000550E550E190E550E550E550E550E550E02
:10022000550E550E000E550E550E550E550E550E0B
:10023000550E550E1D0E550E550E550E550E550EDE
:10024000550E550E1D0E550E550E550E550E550ECE
:10025000550E550E320E550E550E550E550E550EA9
:10026000550E550E4C0E550E550E550E550E550E7F
:10027000550E550E4C0EDA12DE12C812CE12D412E2
:100280002313E212E812EE12F412FA12001306130C
:100290000C132313121318131E1300000A0B020968
:1002A0000C0D0E0807030401000000000000000010
:1002B000000000000000000000000000000000003E
:1002C00000000000000012111000000000000000FB
:1002D000000000000000000000000000000000001E
:1002E0000102102020080810204010204080020148
:1002F000020108040201010204081020408080402D
:10030000201008040201800402018040201008042B
:1003100002010804020101020408102040800102C9
:100320000408102040800505050507050808080891
:10033000020202020A0A080804040404010101017D
:100340000101010103030303030303030407070778
:100350000C0C0C0C0C0C0C0C02020202060606061D
:10036000060606060B0B0B0B0B0B0B0B00002000FD
:100370002300260029002C002F003200000100007D
:1003800003010601090100002200250028002B00BE
:100390002E003100340002010000050108010B01AC
:1003A00000002100240027002A002D003000330027
:1003B00001010000040107010A018C023A0FBF107D
:1003C00011241FBECFEFD1E2DEBFCDBF00E00CBFD6
:1003D00012E0A0E0B2E0E2EDF7E200E00BBF02C005
:1003E00007900D92AA36B107D9F72AE0AAE6B2E043
:1003F00001C01D92AA3CB207E1F713E0C0ECD3E0C4
:1004000000E006C022970109FE010BBF0E94E31322
:10041000CA3BD10780E00807A9F746D00C94E71340
:10042000EFCDCF93DF931F921F92CDB7DEB7209110
:10043000C60A3091C70A2115310521F4CE01895C25
:100440009A4004C0CE010196821B930B0F900F902F
:10045000DF91CF91089526E040E052EC61E070E03A
:1004600080E29AE00E94F30F8EEC99E00E94020F66
:1004700042E063E087E992E0A6D187E992E062D1A9
:1004800080E992E0F4D242E064E08AE692E0CFD3E1
:100490008AE692E063D361E086E10E94241360E083
:1004A00088E10C9424130895AF92BF92CF92DF920B
:1004B000EF92FF920F93CF93DF931F921F92CDB7CE
:1004C000DEB70E945C12C7DF61E08CE00E9424135B
:1004D00061E08DE00E942413A12CB12CC12CD12C01
:1004E000CE0101967C0100E020E030E040E450E0E5
:1004F00063E272E08FEA92E0C6D6BFD780E090E078
:100500000F900F90DF91CF910F91FF90EF90DF90C0
:10051000CF90BF90AF900895EF920F9328EC30E00A
:1005200048E166E183E193E05ED40F2EF3E0EF2E25
:10053000F02D04E020E032E043E052E067E072E0BA
:100540008FEA92E07DD087E992E0D5D080E992E011
:100550005CD28AE692E09BD20F91EF9008958BE7F0
:100560008093A40280E29AE00E943E0F892BD9F08A
:1005700080E29AE00E94570F8033A9F04AE050E0F1
:1005800065ED70E080E29AE00E94FC116DE080E28F
:100590009AE00E94301145DF4AE050E0BC0180E261
:1005A0009AE00E94FC1184EF91E00E94A50BDACF43
:1005B000CF93DF93EC018AD7809125039091260396
:1005C000892B31F48AE293E09093260380932503EC
:1005D00040912703509128039E01240F351F2B3D86
:1005E00085E0380770F44217530770F4C091250373
:1005F000D0912603C40FD51F3093280320932703DF
:1006000005C0C0E0D0E002C0C0E0D0E00E94270BEF
:10061000CE01DF91CF9108950895FC0110821382DD
:1006200014820895862F642F0C9424130895862F26
:10063000642F0C9462130895862F0C9492130895DE
:100640004F925F926F927F928F929F92AF92BF92E2
:10065000CF92DF92EF920F93CF93DF93EC014B0198
:100660003A0159010296D9DF8EE392E0998388839B
:100670002E018BE1480E511C620182E3C80ED11C91
:10068000C201CBDF85E0480E511C4C145D04C1F75C
:10069000FE01E95AFF4F718260823296B182A082D8
:1006A000329600833196E082379791828082389625
:1006B0008AE090E091838083329684EF91E0918389
:1006C0008083339611821082719710821182128278
:1006D0001382CF59DF4F1882DF91CF910F91EF90A6
:1006E000DF90CF90BF90AF909F908F907F906F9052
:1006F0005F904F900895FC0183E0878312861186F6
:10070000138608950F931F93CF93DF93EC01062F69
:10071000142F68858EEC99E00E941B0F602F8EECE1
:1007200099E00E94C20E612F8EEC99E00E94C20EE9
:100730008EEC99E00E94370F8E83DF91CF911F914D
:100740000F910895CF93DF93EC018F81823021F4D4
:1007500040E069E3CE01D6DF40E063E2CE01D2DFC4
:100760004FE660E2CE01CEDFDF91CF910895CF93C7
:10077000DF93C62FD42F8EEC99E00E941B0F6D2FB4
:100780008EEC99E00E94C20E8EEC99E00E94370F29
:10079000811111C041E06C2F8EEC99E00E94180F7E
:1007A0008EEC99E00E94680E892B41F08EEC99E066
:1007B0000E94700E05C08FEF9FEF02C08FEF9FEF7A
:1007C000DF91CF9108950F931F93CF93DF93EC01A7
:1007D000162F042F633009F456C04230C9F556C0B5
:1007E000133009F058C0873D910509F458C001E065
:1007F00011E02CC0013091F04FE06AE6CE01B7DF86
:100800008F3F2FEF920751F0133009F046C0873D1C
:10081000910509F047C000E012E018C0133011F054
:10082000111114C0002349F04FE069E6CE019FDFAB
:10083000833D9105D1F1013039F04FE068E6CE01FA
:1008400096DF833D910599F11330B9F00230B9F08C
:100850001F83112351F01330A0F4013011F48BE603
:1008600001C08AE6888781E041C0013011F489E641
:1008700001C088E6888781E039C080E037C080E029
:1008800035C081E033C0442341F11EC08FEF860F95
:10089000833030F60FC001E0C3CF00E0C1CF01E0EC
:1008A00012E0D4CF00E011E0D1CF01E001C000E0C0
:1008B0001F82DBCF4FE06BE6CE0159DF8F3F2FEF7A
:1008C000920709F08DCF98CF4FE06BE650DF8F3F56
:1008D0002FEF920709F087CF8DCF4FE06AE647DF11
:1008E0008F3F2FEF920709F092CF98CFDF91CF91F2
:1008F0001F910F910895FC010396928381832FEF3E
:100900003FEF348323839683858390878783108288
:100910000895FC01118610860895CF93DF939C0102
:10092000FB01DC011196CD91DC911297D383C28338
:100930008C819D81958384838C819D81DC011396BC
:100940007C936E9312977D836C8331872087F901A6
:1009500080818F5F8083DF91CF910895CF93DF9364
:10096000EB01488159814F3F2FEF520721F4FC01E1
:10097000A781B0850DC0DC0113961296ED91FC9114
:100980001397208131814217530710F0DF01F5CF13
:100990001296ED91FC911397FB83EA83D583C48370
:1009A000BD83AC831396DC93CE9312979987888787
:1009B000FC0120812F5F2083DF91CF910895CF9399
:1009C000DF93FC01A085B185C281D38184819581AB
:1009D0009D838C83C481D581828193819B838A830B
:1009E0001196CD91DC911297CE17DF0731F48C81EF
:1009F0009D8112969C938E931197118610868C91EF
:100A000081508C93DF91CF91089522E0FC012083E7
:100A10002DE5218308951F93CF93DF93EB01142FCE
:100A2000DD233CF4FC01E61BF70BC281DD27C7FD8B
:100A3000D095FC0161818EEC99E00E941B0FE09142
:100A4000CE09F091CF090190F081E02D6C2F8EEC52
:100A500099E01995612F8EEC99E00E94C20E8EEC00
:100A600099E00E94370FDF91CF911F910895FC010B
:100A70002081213029F440EB60E270E0CCCF089572
:100A8000211104C040EE60E270E0C5CF0895CF931D
:100A9000DF93EC0186E0E5E1F2E0DE0152960190A1
:100AA0000D928A95E1F786E0EBE1F2E0DE011C961B
:100AB00001900D928A95E1F784E0898F1CA21BA218
:100AC0001DA2DF91CF9108950F931F93CF93DF93D2
:100AD000EC01062F142F6A8D8EEC99E00E941B0FFB
:100AE000602F8EEC99E00E94C20E612F8EEC99E08F
:100AF0000E94C20E8EEC99E00E94370F888FDF9122
:100B0000CF911F910F9108950F931F93CF93DF9370
:100B1000EC01062F142F6B8D8EEC99E00E941B0FB9
:100B2000602F8EEC99E00E94C20E612F8EEC99E04E
:100B30000E94C20E8EEC99E00E94370F888FDF91E1
:100B4000CF911F910F910895FC01218D233011F059
:100B5000603210F4D9CF0895B7CF0895CF93DF93C3
:100B6000EC01898D8330A9F440E061E2CE01ECDF35
:100B700047E560E2CE01E8DF44E664E2CE01E4DF6F
:100B800040E265E2CE01E0DF40E066E2CE01DCDF7C
:100B90001FC0823049F448E063E2CE0195DF47E4AC
:100BA00060E2CE0191DF08C040E063E2CE018CDF5D
:100BB00047E260E2CE0188DF4CE060E0CE01A4DFD6
:100BC00040E261E0CE01A0DF40E062E0CE019CDFC8
:100BD000DF91CF910895CF93DF93C62FD42F8EEC62
:100BE00099E00E941B0F6D2F8EEC99E00E94C20EBF
:100BF0008EEC99E00E94370F811111C041E06C2FFB
:100C00008EEC99E00E94180F8EEC99E00E94680E1D
:100C1000892B41F08EEC99E00E94700E05C08FEF99
:100C20009FEF02C08FEF9FEFDF91CF9108950F9359
:100C30001F93CF93DF93EC01162F042F643009F438
:100C4000ADC0423009F047C0ADC04FE06DE1CE010C
:100C5000C2DF8934910509F4ABC0013041F04FE0A7
:100C60006EE1CE01B8DF8934910509F4A3C01430D8
:100C700011F0133068F50023A9F040E269E1CE01DC
:100C8000AADF019669F0143009F099C04FE06EE1D7
:100C9000CE01A1DFCC9709F094C001E012E01BC0A7
:100CA000013099F040E268E1CE0195DF019669F0EC
:100CB000143009F089C04FE06EE1CE018CDF11E005
:100CC000CC9709F010E000E006C0143009F460C0D1
:100CD000023009F45FC0198F113071F108F442C07D
:100CE0001230C1F0133009F057C0013011F48DE11A
:100CF00001C08EE18B8F8A8F88E08E8F89E08D8F87
:100D00008AE088A38BE08F8F8CE08AA38DE089A393
:100D100081E064C089E18A8F8EE18B8F83E08D8FC3
:100D200084E08E8F87E08F8F88E088A385E089A399
:100D300086E08AA381E052C0013011F489E101C04C
:100D400088E18A8F8EE18B8F83E08D8F84E08E8F98
:100D500087E08F8F88E088A385E089A386E08AA357
:100D600081E03CC0013011F489E101C088E18A8F43
:100D70008EE18B8F83E08D8F84E08E8F85E08F8F67
:100D800086E088A387E089A388E08AA381E026C063
:100D900080E024C080E022C081E020C0442309F428
:100DA0005ECF53CF8DEF860F823008F062CF0EC03A
:100DB00001E003C000E001C001E013E089CF01E0E1
:100DC0008ACF01E010E087CF00E085CF4FE06DE1F2
:100DD000CE0101DF8934910579F341CFDF91CF91C5
:100DE0001F910F910895CF93DF93DC0170E0FB0119
:100DF000E052FD4FE4911496EC93149750E0FA0101
:100E0000E052FD4FE4911596EC9315976A5D7C4F87
:100E1000FB01849190E0880F991F8A579C4FFC0139
:100E2000C591D4911796DC93CE931697FA01EA5D9B
:100E3000FC4F849190E0880F991F84599C4FFC01CE
:100E4000459154911B965C934E931A97FB016491C4
:100E5000E62FF0E0EE0FFF1FE056FC4F85919491D6
:100E600019969C938E931897822F932F853FF1E0CC
:100E70009F0714F084EF91E049E3489F9001499F58
:100E8000300D1124C9014C961D969C938E931C978E
:100E9000DF91CF9108951F920F920FB60F921124F8
:100EA0000BB60F922F933F934F935F936F937F9364
:100EB0008F939F93AF93BF93EF93FF93E0910509B7
:100EC000F0910609309709F01995FF91EF91BF91C4
:100ED000AF919F918F917F916F915F914F913F91D2
:100EE0002F910F900BBE0F900FBE0F901F90189573
:100EF00031E1FC013083319722E220833197A3E373
:100F0000A083319760833197708331971082319736
:100F10001082319760E86083319710823197108298
:100F200031971082319762E06083319763E060838C
:100F3000319764E06083319765E06083319766E0C4
:100F40006083319767E06083319768E06083319711
:100F500069E06083319760E1608331973083319736
:100F600032E13083319733E13083319734E130839C
:100F7000319735E13083319736E13083319737E16E
:100F80003083319738E13083319739E130833197BD
:100F900030E23083319731E23083319720833197CB
:100FA00023E220833197408331975083319726E2A3
:100FB0002083319727E22083319728E220833197DD
:100FC00029E22083319720E32083319721E3208396
:100FD0008997089582E08093B0001092B20080E378
:100FE0008093B300E0E7F0E080818260808383E05B
:100FF0008093B100A0915E09B0915F09CD91CDBF02
:10100000DD91DEBFFF91EF91DF91CF91BF91AF9165
:101010009F918F917F916F915F914F913F912F9110
:101020001F910F91FF90EF90DF90CF90BF90AF9006
:101030009F908F907F906F905F904F903F902F90F8
:101040001F900F900CBE0F900BBE0F900FBE0F9015
:10105000089581E008950F920FB6F8940F920BB6A1
:101060000F920CB60F921F9211242F923F924F9223
:101070005F926F927F928F929F92AF92BF92CF9228
:10108000DF92EF92FF920F931F932F933F934F9313
:101090005F936F937F938F939F93AF93BF93CF9300
:1010A000DF93EF93FF93A0915E09B0915F090DB6B6
:1010B0000D920EB60D929CD3A0915E09B0915F097E
:1010C000CD91CDBFDD91DEBFFF91EF91DF91CF914B
:1010D000BF91AF919F918F917F916F915F914F9150
:1010E0003F912F911F910F91FF90EF90DF90CF9044
:1010F000BF90AF909F908F907F906F905F904F9038
:101100003F902F901F900F900CBE0F900BBE0F9032
:101110000FBE0F9008950F920FB6F8940F920BB672
:101120000F920CB60F921F9211242F923F924F9262
:101130005F926F927F928F929F92AF92BF92CF9267
:10114000DF92EF92FF920F931F932F933F934F9352
:101150005F936F937F938F939F93AF93BF93CF933F
:10116000DF93EF93FF93A0915E09B0915F090DB6F5
:101170000D920EB60D92B0D181113AD3A0915E09B5
:10118000B0915F09CD91CDBFDD91DEBFFF91EF91B1
:10119000DF91CF91BF91AF919F918F917F916F918F
:1011A0005F914F913F912F911F910F91FF90EF9081
:1011B000DF90CF90BF90AF909F908F907F906F9077
:1011C0005F904F903F902F901F900F900CBE0F900C
:1011D0000BBE0F900FBE0F9008959DDF1895E09104
:1011E0002609F09127098081811107C08FEF9FEFB9
:1011F00090931402809313020895E0912609F091D0
:1012000027090580F681E02D0680F781E02D828197
:10121000938190931402809313020895CF93DF93E8
:10122000EC01E0915E09F0915F09938382838091E4
:101230000E0990910F09C817D90760F460915E09F3
:1012400070915F0980912409909125096E5F7F4F0D
:1012500085DB16C060915E0970915F098091260957
:10126000909127096E5F7F4F79DB809113029091F7
:101270001402C817D90720F4D0931402C0931302A4
:10128000DF91CF9108954F925F926F927F928F92EC
:101290009F92AF92BF92CF92DF92EF92FF920F9305
:1012A0001F93CF93DF934C015B012A01390181E247
:1012B00090E07ED9EC01009709F4CDC0C114D104AF
:1012C00009F0B2C0C20174D9988F8F8B892B09F0B5
:1012D000ADC0CE01A1D9BFC0CF013191DA013D939C
:1012E000AD01DC018C91882311F02150A9F718A2DF
:1012F000102F043008F013E01E8B5E01B2E0AB0E3D
:10130000B11CC50106DBCE010C9603DBD987C8876B
:1013100084E090E0811B91099D878C87DB8BCA8BD1
:10132000A301B401C601E4DD99838883E114F104CB
:1013300019F0F701D183C0830FB6F8940F92809112
:1013400010098F5F8093100980915E0990915F0969
:10135000892B69F5D0935F09C0935E0980911009CC
:101360008130A1F58AE399E0C6DA83E499E0C3DA33
:101370008CE499E0C0DA85E599E0BDDA81E399E093
:10138000BADA88E299E0B7DA8BE199E0B4DA82E17F
:1013900099E0B1DA81E399E09093270980932609D7
:1013A00088E299E090932509809324090FC08091E9
:1013B0000C0981110BC0E0915E09F0915F098689EB
:1013C000081720F0D0935F09C0935E098091080947
:1013D0008F5F809308098E8990910D09981710F4FA
:1013E00080930D0990E09C01220F331F220F331FC1
:1013F000220F331F820F931FB501865C964F8DDA43
:101400000F900FBE80910C09882351F0E0915E0986
:10141000F0915F098689801728F41DDE81E01CC0E9
:1014200081E01AC081E018C0D88ECF8AF1E04F1A4F
:101430005108CF88D88CC40CD51CD5018C91898FCC
:101440008C91882309F453CFAE01465E5F4FF501BE
:10145000319627E041CF8FEFDF91CF911F910F9110
:10146000FF90EF90DF90CF90BF90AF909F908F90C4
:101470007F906F905F904F900895AF92BF92CF9200
:10148000DF92EF92FF920F93A12CB12CC12CD12CA3
:10149000E12CF12C00E020E030E045E550E064E490
:1014A00072E080EC9BE0EFDE813041F4F8948093B1
:1014B0000C0910920F0910920E098CDD0F91FF900C
:1014C000EF90DF90CF90BF90AF9008958091070983
:1014D0008F5F809307090895CF92DF92EF92FF927A
:1014E0000F931F93CF93DF9380910709811196C0CB
:1014F00080910E0990910F09019690930F098093A6
:101500000E09E0900E09F0900F09E114F104B1F416
:10151000809126099091270920912409309125096D
:101520003093270920932609909325098093240955
:10153000809109098F5F8093090951DE8091130220
:1015400090911402E816F90608F451C0D12CCC246D
:10155000C39401C0DC2CE0912609F0912709808119
:10156000811107C08FEF9FEF9093140280931302B5
:101570003FC0E0912609F09127090580F681E02D12
:10158000C681D7812A813B81E216F30628F4309385
:101590001402209313022CC08E010E5F1F4FC8014E
:1015A0000EDA8C899D89892B19F0CE010C9607DA09
:1015B0002E8980910D09821710F420930D0930E0D7
:1015C000C901880F991F880F991F880F991F820FD3
:1015D000931FB801865C964FA0D9E0915E09F09107
:1015E0005F099E898689981708F0B4CFB4CFD12CB3
:1015F000E0915E09F0915F09868990E0FC01EE0FB1
:10160000FF1FEE0FFF1FEE0FFF1F8E0F9F1FFC012E
:10161000E65CF64F8081823040F409C080910B096E
:101620008F5F80930B09D12C02C0DD24D39480916D
:101630000A09882311F0DD24D3948D2DDF91CF91F9
:101640001F910F91FF90EF90DF90CF900895DF9260
:10165000EF92FF920F931F93CF93DF930FB6F894FF
:101660000F928091070981508093070980910709A3
:1016700081115CC080911009882309F459C00F2E94
:10168000FBE1EF2EF9E0FF2EF02DDD24D3942DC0E9
:10169000E0912009F0912109C681D781CE010C96F5
:1016A0008ED98E010E5F1F4FC80189D98E89909106
:1016B0000D09981710F480930D0990E09C01220FFA
:1016C000331F220F331F220F331F820F931FB801C6
:1016D000865C964F22D9E0915E09F0915F099E8960
:1016E0008689981710F0D0920A09F701808181113C
:1016F000CFCF80910B09882391F080910B0988232B
:1017000071F0C1E0E9DE8111C0930A0980910B09F3
:10171000815080930B0980910B098111F3CF809147
:101720000A09813039F497DC81E005C080E003C00C
:1017300080E001C080E00F900FBEDF91CF911F913C
:101740000F91FF90EF90DF900895CF93DF93EC011E
:10175000009791F0BBDE80910E0990910F09C80FA0
:10176000D91F80915E0990915F09029628D9CE0118
:1017700055DD6DDF811101C06EDCDF91CF910895E1
:101780000F2EFAE3EF2EF9E0FF2EF02DC2E1D9E0A3
:1017900025C09CDE18815BDF112301F10FB6F894A0
:1017A0000F92E0911709F091180906811781C8017D
:1017B000029605D98091100981508093100980917B
:1017C00011098150809311090F900FBEF80187898C
:1017D000908D0E940C03C8010E940C038091110996
:1017E0008111D7CFF70180818230C0F334DCF6CF8E
:1017F00080910709882321F081E080930A090895E8
:1018000010920A0980910D0990E0FC01EE0FFF1F74
:10181000EE0FFF1FEE0FFF1F8E0F9F1FFC01E65CF8
:10182000F64F8081811117C080910D0981508093FE
:101830000D0980910D0990E0FC01EE0FFF1FEE0FE6
:10184000FF1FEE0FFF1F8E0F9F1FFC01E65CF64F80
:101850008081882349F3E0910D09F0E0CF01880FE2
:10186000991F880F991F880F991FE80FF91FE65CD1
:10187000F64FA181B28112960D90BC91A02DB2833A
:10188000A183CF010396A817B90731F412968D9161
:101890009C911397928381830180F281E02D868150
:1018A000978190935F0980935E0908951092CD0906
:1018B00081E08093CB091092CA0961E084E102D7EC
:1018C00061E085E1FFD6E9EBF0E080818E7F8083E7
:1018D00080818D7F808388E48093B80085E4809345
:1018E000BC000895413208F045C09091CD09911196
:1018F000FCCF91E09093CD092093CB092FEF20935B
:1019000060091092A509240F2093A4099093CC0993
:101910009091CC09880F892B8093CC098091CA09BA
:10192000813051F41092CA098091CC098093BB0098
:1019300085EC8093BC0003C085EE8093BC00809151
:10194000CD098130E1F38091A509841710F440910D
:10195000A509442389F0E6EAF9E0A62FB72F2FEF77
:10196000240F30E02955364F91919D93E217F307EC
:10197000D9F704C080E00895842F0895842F089536
:101980000F93413208F050C09091CD099111FCCFD6
:1019900092E09093CD090093CB099FEF909360095B
:1019A0001092A5094093A409442369F0FB01A6EA1B
:1019B000B9E06F5F7F4F4150640F711D91919D930E
:1019C000E617F707D9F71092CC099091CC09880F48
:1019D000892B8093CC098091CA09813051F41092EF
:1019E000CA098091CC098093BB0085EC8093BC0030
:1019F00003C085EE8093BC00222341F08091CD0985
:101A0000823021F48091CD098230E1F38091600928
:101A10008F3F61F080916009803251F080916009C0
:101A2000803341F483E007C081E005C080E003C05B
:101A300082E001C084E00F9108956132A8F4209102
:101A4000CD09243099F460938209662389F0FC0162
:101A5000A4E8B9E001966150860F911D21912D9364
:101A6000E817F907D9F706C081E0089582E00895E4
:101A700080E0089580E0089585ED8093BC00ECEB54
:101A8000F0E0808184FDFDCF1092CD09089585ECB2
:101A90008093BC001092CD0908951F920F920FB64B
:101AA0000F9211240BB60F922F933F934F935F9396
:101AB0006F937F938F939F93AF93BF93EF93FF9316
:101AC0008091B900887F90E0893C910508F0EDC0D5
:101AD000FC01EE58FF4F71C68091CC098093BB008A
:101AE00085EC8093BC00E1C09091A5098091A40988
:101AF000981780F4E091A50981E08E0F8093A509E5
:101B0000F0E0EA55F64F80818093BB0085EC80932E
:101B1000BC00CBC08091CB09882311F0ADDFC5C0DC
:101B200081E08093CA0984EA8093BC001092CD09B9
:101B3000BCC080E2809360099FDFB7C080E38093E0
:101B400060099ADFB2C088E380936009A0DFADC06E
:101B5000E091A50981E08E0F8093A5098091BB00DB
:101B6000F0E0EA55F64F80839091A5098091A40991
:101B7000981720F485EC8093BC0097C085E880938B
:101B8000BC0093C0E091A50981E08E0F8093A50968
:101B90008091BB00F0E0EA55F64F80838091CB093D
:101BA000882311F069DF81C081E08093CA0984EA4B
:101BB0008093BC001092CD0978C05EDF76C083E0D0
:101BC0008093CD091092610985EC8093BC006DC0B3
:101BD00080916109803280F4E091610981E08E0F8B
:101BE000809361098091BB00F0E0EE59F64F80834D
:101BF00085EC8093BC0059C085E88093BC0055C03B
:101C000080916109803230F4E0916109F0E0EE5991
:101C1000F64F108231DF6091610970E0E091C609F2
:101C2000F091C70982E699E01995109261092FDFBA
:101C30003CC085E88093BC0038C084E08093CD0927
:101C40001092830910928209E091C809F091C909A4
:101C5000199580918209811105C081E080938209E4
:101C600010928409E091830981E08E0F80938309AB
:101C7000F0E0EC57F64F80818093BB009091830990
:101C800080918209981720F485EC8093BC000DC0E8
:101C900085E88093BC0009C085EC8093BC0010925D
:101CA000CD0903C010926009E7DEFF91EF91BF916B
:101CB000AF919F918F917F916F915F914F913F91E4
:101CC0002F910F900BBE0F900FBE0F901F90189585
:101CD0008091FE0990E02091FF09821B91090895EF
:101CE0002091FF098091FE09281750F4E22FF0E0BF
:101CF000E050F64F808190E02F5F2093FF09089518
:101D00008FEF9FEF0895E091FF098091FE09E8179A
:101D100030F4F0E0E050F64F808190E008958FEFCE
:101D20009FEF08950895CF92DF92EF92FF920F9365
:101D30001F93CF93DF938C017B016A018091DA09B5
:101D4000882399F04115510599F0EB01E40EF51E39
:101D50006991D801ED91FC910190F081E02DC801CD
:101D60001995CE15DF05A1F703C0642FC70165DE05
:101D7000C601DF91CF911F910F91FF90EF90DF90FF
:101D8000CF900895CF93DF931F92CDB7DEB76983CD
:101D90002091DA092223E1F02091DB09203240F082
:101DA00021E030E0FC013383228380E090E016C024
:101DB0008091DC09E82FF0E0E352F64F998190839F
:101DC0008F5F8093DC098093DB0981E090E006C09F
:101DD00061E0CE01019631DE81E090E00F90DF916D
:101DE000CF910895FC011382128248EE53E060E027
:101DF00070E044835583668377838DE492E091831A
:101E0000808308951092FF091092FE091092DC0958
:101E10001092DB094BCD0895862F413208F040E245
:101E200060E07AE05FDD1092FF098093FE0908957B
:101E300021E0F2CF089581E08093DA096093FD09F3
:101E40001092DC091092DB0908950F93062F21E010
:101E50004091DB096DED79E08091FD0991DD1092F3
:101E6000DC091092DB091092DA090F91089561E004
:101E7000ECCF08958EEC99E0B5CF0895FC01818DEB
:101E8000228D90E0805C9F4F821B91098F73992770
:101E90000895FC01918D828D981731F0828DE80FA5
:101EA000F11D858D90E008958FEF9FEF0895FC015F
:101EB000918D828D981761F0828DDF01A80FB11D81
:101EC0005D968C91928D9F5F9F73928F90E00895A5
:101ED0008FEF9FEF0895FC01848DDF01A80FB11DE6
:101EE000A35ABF4F2C91848D90E001968F73907808
:101EF000848FA689B7892C93A089B1898C9180643D
:101F00008C93938D848D981306C00288F389E02DFD
:101F100080818F7D80830895CF93DF93EC01888D3E
:101F200081110AC01AC00FB607FC08C0808185FF66
:101F300005C00DC0CE01CFDFEA89FB89808185FD18
:101F4000F2CFA889B9898C9186FFEDCF06C0A88908
:101F5000B9898C9185FFF2CFEDCFDF91CF910895B4
:101F60000F931F93CF93DF93EC01162F9B8D8C8DD6
:101F7000981323C0E889F989808185FD25C01DC09B
:101F80000FB607FC07C0E889F989808185FF02C088
:101F9000CE01A1DF9C8D091799F38B8DFE01E80F0F
:101FA000F11DE35AFF4F10830B8FEA89FB89808173
:101FB0008062808381E0888F0FC08B8D90E00196D6
:101FC0008F739078082FE6CFEE89FF896083E889C8
:101FD000F98980818064808381E090E0DF91CF91F6
:101FE0001F910F910895CF92DF92EF92FF921F936E
:101FF000CF93DF93EC016A017B01122FE889F98905
:1020000082E08083411581EE580761057105A9F0D2
:1020100060E079E08DE390E0A7019601ACD3BA01CE
:10202000A901415051096109710976956795579544
:102030004795411580E15807A0F0E889F989108299
:1020400060E874E88EE190E0A701960194D3BA01AC
:10205000A901415051096109710976956795579514
:102060004795EC85FD855083EE85FF854083188E6E
:10207000EC89FD891083EA89FB89808180618083F6
:10208000EA89FB89808188608083EA89FB89808175
:1020900080688083EA89FB8980818F7D8083DF91DE
:1020A000CF911F91FF90EF90DF90CF9008951F92F6
:1020B0000F920FB60F9211240BB60F922F938F939E
:1020C0009F93AF93BF93EF93FF93E091300AF0910A
:1020D000310A808182FD17C0E091360AF091370AFB
:1020E00020818091390A8F5F8F7390913A0A891706
:1020F00079F0E9E3FAE0A081B0E0A05EB54F5D962B
:102100002C93808305C0E091360AF091370A8081D4
:10211000FF91EF91BF91AF919F918F912F910F9070
:102120000BBE0F900FBE0F901F9018951F920F922D
:102130000FB60F9211240BB60F922F933F934F932C
:102140005F936F937F938F939F93AF93BF93EF931F
:10215000FF9380E29AE0BFDEFF91EF91BF91AF91D4
:102160009F918F917F916F915F914F913F912F91AF
:102170000F900BBE0F900FBE0F901F9018951092EE
:10218000230A1092220A88EE93E0A0E0B0E0809348
:10219000240A9093250AA093260AB093270A8DE576
:1021A00092E09093210A8093200A85EC90E090932E
:1021B0002D0A80932C0A84EC90E090932F0A809350
:1021C0002E0A80EC90E09093310A8093300A81ECE3
:1021D00090E09093330A8093320A82EC90E09093DF
:1021E000350A8093340A86EC90E09093370A809306
:1021F000360A1092390A10923A0A10923B0A10924B
:102200003C0A0895CF92DF92EF92FF920F931F93B3
:10221000CF93DF936C0141155105B1F0062F172FB5
:10222000EA01E12CF12CD8016D918D01D601ED91DF
:10223000FC910190F081E02DC6011995E80EF91E80
:102240002197209781F702C0E12CF12CC701DF9183
:10225000CF911F910F91FF90EF90DF90CF90089555
:10226000DC01ED91FC910190F081E02D199508952C
:102270000F931F93CF93DF93EC016DE0F1DF8C019F
:102280006AE0CE01EDDF800F911FDF91CF911F91AA
:102290000F9108956F927F928F929F92AF92BF920B
:1022A000CF92DF92EF92FF920F931F93CF93DF9322
:1022B000CDB7DEB7A1970FB6F894DEBF0FBECDBF86
:1022C0006C01742E352F862F972F622E19A221E0D4
:1022D000261520F00F2EFAE06F2EF02D7E01A1E2E0
:1022E000EA0EF11C862C912CA12CB12C672D732F9A
:1022F000A501940140D2E22F732F022F132F242F18
:10230000352FF72D6E9EF0191124B1E0EB1AF1086C
:10231000FA3010F4F05D01C0F95CD701FC93012B99
:10232000022B032B29F07E2E372F842F952FDECF03
:10233000E114F10491F0F70101900020E9F73197E1
:10234000AF014E195F09D601ED91FC910280F38136
:10235000E02DB701C601199502C080E090E0A1967A
:102360000FB6F894DEBF0FBECDBFDF91CF911F91A6
:102370000F91FF90EF90DF90CF90BF90AF909F9024
:102380008F907F906F900895CF92DF92EF92FF929F
:102390000F931F93CF93DF93EC016A017B0121150B
:1023A000310541F4E881F9810190F081E02D642F3D
:1023B000199519C02A303105A9F4772384F46DE208
:1023C0004FDF8C0144275527BA014C195D096E096E
:1023D0007F092AE0CE015EDF800F911F04C02AE052
:1023E00059DF01C057DFDF91CF911F910F91FF900F
:1023F000EF90DF90CF9008950F931F93CF93DF93CB
:10240000EC019A01AB01662757FD6095762FBCDF82
:102410008C01CE012DDF800F911FDF91CF911F9195
:102420000F9108951F920F920FB60F9211242F93C0
:102430003F938F939F93AF93BF938091BE0A9091E8
:10244000BF0AA091C00AB091C10A3091BD0A23E031
:10245000230F2D3720F40196A11DB11D05C026E8DC
:10246000230F0296A11DB11D2093BD0A8093BE0AC1
:102470009093BF0AA093C00AB093C10A8091C20A88
:102480009091C30AA091C40AB091C50A0196A11DFA
:10249000B11D8093C20A9093C30AA093C40AB0935B
:1024A000C50ABF91AF919F918F913F912F910F904E
:1024B0000FBE0F901F901895789484B5826084BDEC
:1024C00084B5816084BD85B5826085BD85B5816038
:1024D00085BDEEE6F0E0808181608083E1E8F0E098
:1024E0001082808182608083808181608083E0E8C7
:1024F000F0E0808181608083E1EBF0E080818460A6
:102500008083E0EBF0E0808181608083E1E9F0E0AE
:10251000808182608083808181608083E0E9F0E057
:10252000808181608083E1EAF0E080818260808345
:10253000808181608083E0EAF0E080818160808337
:10254000E1E2F1E08081826080838081816080832C
:10255000E0E2F1E0808181608083EAE7F0E0808161
:1025600084608083808182608083808181608083B9
:102570008081806880831092C100089590E0FC0102
:102580003197E231F10508F05EC0E55CFE4F15C100
:10259000E0E8F0E080818F7780830895E0E8F0E064
:1025A00080818F7D80830895E0E8F0E08081877FDF
:1025B0008083089584B58F7784BD089584B58F7D19
:1025C00084BD0895E0EBF0E080818F7780830895EB
:1025D000E0EBF0E080818F7D80830895E0E9F0E01A
:1025E00080818F7780830895E0E9F0E080818F7D9E
:1025F00080830895E0E9F0E08081877F80830895FB
:10260000E0EAF0E080818F7780830895E0EAF0E0EF
:1026100080818F7D80830895E0EAF0E08081877F6C
:1026200080830895E0E2F1E080818F7780830895D0
:10263000E0E2F1E080818F7D80830895E0E2F1E0C7
:102640008081877F80830895CF93DF9390E0FC01A2
:10265000E052FD4F2491FC01EA5DFC4F84918823F8
:1026600071F190E0880F991FFC01E056FC4FA59195
:10267000B4918A579C4FFC01C591D49161110BC054
:102680008FB7F8949C91209592239C93E8812E23F8
:1026900028838FBF14C0623061F48FB7F8943C91E7
:1026A000922F909593239C93E8812E2B28838FBFA4
:1026B00006C08FB7F894EC912E2B2C938FBFDF912F
:1026C000CF9108951F93CF93DF93C62F282F30E02B
:1026D000F901E656FD4F8491F901E052FD4F149146
:1026E000F901EA5DFC4FD491DD23C1F0811146DF91
:1026F0002D2F30E0F901EE0FFF1FEA57FC4FA59197
:10270000B4918FB7F894C11105C0EC9110951E23B8
:102710001C9303C0EC911E2B1C938FBFDF91CF91B4
:102720001F910895CF93DF93282F30E0F901E656EB
:10273000FD4F8491F901E052FD4FD491F901EA5D1A
:10274000FC4FC491CC2391F0811118DF2C2F30E085
:10275000F901EE0FFF1FE459FC4FA591B491EC91E4
:10276000DE2381E090E021F480E002C080E090E090
:10277000DF91CF910895A1E21A2EAA1BBB1BFD0188
:102780000DC0AA1FBB1FEE1FFF1FA217B307E40750
:10279000F50720F0A21BB30BE40BF50B661F771FA8
:1027A000881F991F1A9469F7609570958095909588
:1027B0009B01AC01BD01CF010895EE0FFF1F0590F5
:1027C000F491E02D19940790F691E02D1994F89466
:0227D000FFCF39
:1027D20024232221201F1E31323334353637383933
:1027E2002A3023FFFF018001800180FF7FFF7FFFEE
:1027F2007F31005461736B204779726F002564202A
:10280200616C74002563002564000000000012035F
:1028120017031C0349444C450000000000C20E93FC
:102822000E680E700E830E920E00000000B00F02B2
:0A283200113E0F570F490F8C0F00E5
:00000001FF
